:02000004080AE8
:1000000000000A08704A0A08000006000600050100
:080010000402350800000000A5
:0400180030420A0860
:10001C0009480A4908B5884205D0094A824202D0EB
:10002C00121A03F09DFF0748074A0021121A03F029
:10003C00BFFF064808BD00BF00000020C4490A08E5
:10004C0084000020840000201C1200201C120020C0
:10005C0070B503F033FD0025054E064CA41BA40817
:10006C00A54200D170BD56F8043B98470135F7E71F
:10007C0094490A08B4490A0800F08EB808B500F093
:10008C0007FABDE8084003F0DBBC01F077B801F0DB
:10009C0075B801F07BB8000000210C2008B5024AAD
:1000AC0000F090FFFEE700BF0D0D0A080078B0FAD3
:1000BC0080F0400970470123037070477047704708
:1000CC00006A0368DB68184710B50446043002F078
:1000DC00E8FE204610BD10B504463C3002F0E1FEAF
:1000EC0004F1280002F0DDFE204602F0DAFE204684
:1000FC0010BD000010B50446024B036000F0ACFDCF
:10010C00204610BD5C440A0810B50446FFF7F2FF08
:10011C00204640F24C7103F0F0FD204610BD00006B
:10012C0013B50446054B00221B788DF800303C2398
:10013C0001F0BAF9204602B010BD00BFE800002063
:10014C0010B50446094B036001F0F8FE214602F09D
:10015C0009F903F079FB03F05DFB2046044B40F8F2
:10016C00043B01F0EDFF204610BD00BF44440A08DB
:10017C002C440A0810B50446FFF7E2FF2046242160
:10018C0003F0BBFD204610BD10B50446182103F04A
:10019C00B4FD204610BD000070B5104E104D06F198
:1001AC0014040FCD0FC42B6823705023B36303F0DA
:1001BC004BFB4FF4165103F029FB0121062003F0F1
:1001CC00FDFC0021062003F00AFDBDE87040002371
:1001DC0002220449044800F051BF00BFAC0C0020BF
:1001EC0014050020EC00002044420A0830B587B00A
:1001FC000546114902A802F09EFE104902A802F021
:10020C001BFF0F4902F018FF0E4C014604F12800A9
:10021C0002F0CCFE02A802F044FE294604F13C0098
:10022C0002F0C4FE084B21460093084A084B0948CB
:10023C0000F0D4FB07B030BD50420A08A8000020E3
:10024C0088000020AC0C002056420A08F80C002054
:10025C0000000020F400002038B5046805467CB18D
:10026C006368013B63605BB9236820469B689847D1
:10027C00A368013BA3601BB923682046DB68984741
:10028C00284638BD10B50446034B40F8183BFFF721
:10029C00E3FF204610BD00BFA0460A0870B5142627
:1002AC00D0E90053044606FB0356AE4204D0284660
:1002BC0002F0F7FD1435F8E7206800F067FF2046E0
:1002CC0070BDF8B505460C4616464AB90368C9B266
:1002DC009B6898470746284602F05BFD3844F8BDFA
:1002EC0000290CDA0A2A0AD12D2102F04FFD07460B
:1002FC0061422846F2B202F062FD0744EBE7214668
:10030C000027F6E738B5054642B903689B6898475D
:10031C000446284602F03DFD204438BDD2B202F01E
:10032C004EFDF5E72DE9F0418AB0494906A802F0E7
:10033C0002FE484906A802F07FFE474902F07CFE07
:10034C00464D014605F1280002F030FE06A802F0E9
:10035C00A8FD434C434B2246294600934248434B4D
:10036C0000F03CFB424E616802A802F0E4FD03F091
:10037C006BFA404902F019FD03F066FA0A22317853
:10038C00FFF7C0FF3C4C03F05FFA029902F00DFD41
:10039C0003F05AFA02F0FDFC2368DFF8F080013319
:1003AC002360364F03F050FA414602F0FEFC03F096
:1003BC004BFA0A222168FFF784FF03F045FA39460D
:1003CC0002F0F3FC2E4906A802F0B5FD06A902A81E
:1003DC0002F05FFE054606A802F063FD6A1D02A945
:1003EC0005F1090306A802F057FE06A802F07DFEEF
:1003FC00244B186006A802F054FD4FF47A7000F0FC
:10040C00F5FE0123337003F01FFA1F4902F0CDFCF7
:10041C0003F01AFA0A223178FFF774FF23680133CC
:10042C00236003F011FA414602F0BFFC03F00CFA12
:10043C000A222168FFF745FF03F006FA394602F05D
:10044C00B4FC02A802F02DFD0AB0BDE8F08100BF9B
:10045C0050420A08A8000020B8000020AC0C002074
:10046C00F80C00205A420A08F4000020000000207A
:10047C00380500205E420A08F00000206E420A088F
:10048C009E440A081000002081420A0868420A08AB
:10049C00F0B50026624C89B00A20266003F0B8FB48
:1004AC00604D614F2E70614E3860FFF73BFF03F0DB
:1004BC00CBF95F4902F079FC03F0C6F931680A22E6
:1004CC00FFF7FFFE03F0C0F902F063FC03F0BCF988
:1004DC000A222978FFF716FF23680133236003F003
:1004EC00B3F9544902F061FC03F0AEF90A22216819
:1004FC00FFF7E7FE03F0A8F94F4902F056FC42F271
:10050C00E20332682E469A424C4D27D033782BB3F7
:10051C002B68022B22DD3B68A3F10802012A4ED87E
:10052C00474904A8FFF7FCFD05A8FFF795FE4449D1
:10053C00444802F055FD6846434902F0FCFC69460C
:10054C0004A802F042FD04A8FFF750FE04A802F034
:10055C00A8FC684602F0A5FC00232B6003F074F99C
:10056C00354902F022FC03F06FF9384902F01DFC0A
:10057C0003F06AF90A223178FFF7C4FE23680133CD
:10058C00236003F061F92B4902F00FFC03F05CF9D6
:10059C000A222168FFF795FE03F056F9264902F06E
:1005AC0004FC4FF4FA7000F021FE2B68032BC4BF3F
:1005BC0000232B602B6801332B6009B0F0BD1A1F90
:1005CC00032A0FD8224904A8FFF7AAFD05A8FFF7B4
:1005DC0043FE2049684602F0AEFC1D49194802F062
:1005EC00FFFCACE7022B0CDC1B4904A8FFF798FDC1
:1005FC0005A8FFF731FE1949684602F09CFC164924
:10060C00ECE7092BA8DD164904A8FFF789FD05A81E
:10061C00FFF722FE1349684602F08DFC1249DDE714
:10062C00F000002038050020EC0000201000002015
:10063C008B420A0868420A086E420A080C0D002018
:10064C0094420A082805002099420A08AA430A087D
:10065C00D8420A08DF420A081E430A0824430A0843
:10066C0063430A0867430A08A6430A088842F8B598
:10067C0004460D46164616D9904215D2A2F1140620
:10068C00751AA1F114072C44B7421CD02CB1314679
:10069C00204602F080FC337C2374304602F001FCCF
:1006AC00143E143CF0E70ED0B5420CD02CB12946C8
:1006BC00204602F070FC2B7C2374284602F0F1FBE0
:1006CC0014351434F0E7F8BD00232DE9F041C0E9EE
:1006DC00003383604F6804469F420E4624DD4FF082
:1006EC00140808FB07F000F049FD0546E0B1D4E919
:1006FC00001208FB0212FFF7B9FF206800F046FD5C
:10070C002560A760D6E9007308FB0378B84509D0CB
:10071C003946284602F059FC3B7C143505F8043C5C
:10072C001437F3E7736863602046BDE8F08100007E
:10073C00F0B500246D4B8FB01C702146012000F0E9
:10074C0071FCCDE90244049403F07EF8684D044634
:10075C002E4602A905A8FFF7B7FF05A908A8FFF7C1
:10076C00B3FF644B08A946F8043B0BA8FFF7ACFF9A
:10077C000BAA1E21304601F047FF0BA8FFF78EFD98
:10078C0008A8FFF78BFD5C4B2C622B6005A8FFF7CC
:10079C0085FD5A4B5A4C2B6003F056F84FF416510A
:1007AC0003F034F801F0CAFB294601F0C0FE554EA7
:1007BC0002A8FFF773FD224628465349534D03F018
:1007CC0097FA3046524902F0B6FB524F3046524E21
:1007DC002246294603F08CFA3946304602F0ABFB30
:1007EC0030464E4E2246294603F082FA39463046B0
:1007FC0002F0A1FB30464A4E2246294603F078FA15
:10080C003046484902F097FB3046474E224629466F
:10081C0003F06EFA3046454902F08DFB3046444EEB
:10082C002246294603F064FA3046424902F083FB23
:10083C003046414E2246294603F05AFA304600F023
:10084C0097F8224630463D4903F052FA9D233C4E20
:10085C000093A8220123C021304601F029F8394F1A
:10086C003046394E2246394903F042FA3946304671
:10087C0002F061FB06F1100000F0E4FF394606F1CE
:10088C00280002F058FB394606F13C0002F053FBFD
:10089C0030462F4E22462F4903F02AFA3946301D96
:1008AC0002F049FB224630462B4903F021FA322351
:1008BC002A4E009306F12C0106F22C434FF4806271
:1008CC00304600F0E5F9264B30463360254E224683
:1008DC00254903F00DFA3046244902F02CFB224640
:1008EC002946304603F004FA0FB0F0BDE8000020B2
:1008FC003C0500202C440A08C4450A0844440A0854
:10090C0084000020A80000204D010A08AF2E0A0820
:10091C00BC430A08E5430A08B8000020C8000020C0
:10092C0088000020EF430A089800002067430A085B
:10093C00D800002000440A08F400002091020A08A4
:10094C0010050020A9440A08AC0C0020C9000A08B4
:10095C00F80C0020E3000A08D5000A086005002006
:10096C005C440A082805002001010A081C440A08F6
:10097C0010B5044602F01EFE204610BD38B50446E4
:10098C00154602F0FFF92046044902F0FBF929460E
:10099C002046BDE8384002F008BA00BF6F450A088F
:1009AC0038B50546144602F0EDF928460A4902F01E
:1009BC00E9F9002C0DDA2D21284602F0E7F9614205
:1009CC0028460A2202F0FBF92846BDE8384002F01E
:1009DC00E0B92146F4E700BF6F450A082DE9F04F56
:1009EC000E4698464FF0FF3391B013600446002139
:1009FC0030461746DDF8689002F02AFBD6F838E04E
:100A0C00034698B9BEF1000F14BF7246502220461F
:100A1C00316892B202F0E6FD051E18BF0125C5B97A
:100A2C00204602F017FD11B0BDE8F08F744B0BADF2
:100A3C0006F1140C0A93BCE80F000FC5DCF800306B
:100A4C0020462B701FFA8EF200230AA902F058FCE4
:100A5C00E2E74946204602F095F96A49204602F041
:100A6C0091F9B16A204602F08DF96749204602F0EF
:100A7C0089F920466549664AFFF780FF0021304618
:100A8C0002F0E6FA20B9204632686249FFF776FF99
:100A9C0006F13C0A0021504602F0DAFA28B9726CD1
:100AAC0020465D49FFF77CFF06E048465B4903F0B2
:100ABC00C2FA02460028F3D0B8F1000F0ED0D8F8D5
:100ACC00001059B1D8F80420204622B1FFF756FF88
:100ADC0008F10808F3E702F068F9F9E7204602F09C
:100AEC0058F9204602F055FB0021504602F0B0FAAE
:100AFC0018B92046F16B02F058F904F11C0A4FF4B6
:100B0C0080620021504603F053FA4FF0000800F0C9
:100B1C00FFF84646019041F2883B00F0F9F8204678
:100B2C0002F05EFCD8B1204602F09DFB814600F03D
:100B3C00EFF840F2FE339E42019004D8A31983F8DB
:100B4C001C900136EBE740F2FF339E42F9D10023B3
:100B5C00204684F81B3402F07DFCA846F1E7A3196B
:100B6C00187700F0D5F8019BA0EB0309B8F1000F42
:100B7C0004D1D94502D8C82000F038FB204602F039
:100B8C00C0FC20B1D94502D8B8F1000FC7D020461F
:100B9C0002F060FC514602A802F0CDF90C230922A8
:100BAC0002A906A802F078FA1D490AA802F0C3F9B6
:100BBC000AA902A802F06DFA04460AA802F071F91B
:100BCC00631C06D106A802F06CF902A802F069F9C0
:100BDC0029E73D1D1349284602F002FA221D02A9FD
:100BEC000AA802F07BFA0AA9284602F021FA0AA800
:100BFC0002F057F9069803F09DF93860E2E700BF60
:100C0C0018450A086B450A086F440A0881440A080B
:100C1C007B440A088C440A0891440A08A0440A0838
:100C2C00A5440A08A9440A0810B5054B04460360FC
:100C3C00037C1BB9406808B100F0A8FA204610BD2F
:100C4C00B4440A0810B50446FFF7EEFF2046142101
:100C5C0003F053F8204610BD10B5074B0446036053
:100C6C00037C1BB9406908B100F090FA2046FFF7ED
:100C7C00DBFF204610BD00BFC4440A0810B5044673
:100C8C00FFF7EAFF20462C2103F037F8204610BD71
:100C9C00C0E901120022C260012210B50274436146
:100CAC00024A029B0260C36110BD00BFC4440A0823
:100CBC0008B5024B1B685B6C019308BDD00106089C
:100CCC0008B5024B1B689B6C019308BDD00106084C
:100CDC0008B5024B1B68DB6C019308BDD0010608FC
:100CEC0008B5024B1B685B6D019308BDD00106086B
:100CFC0008B5024B1B685B68019308BD9C01060894
:100D0C0008B5024B1B68DB68019308BD9C01060803
:100D1C0008B5024B1B685B69019308BD9C01060872
:100D2C0008B5024B1B685B68019308BDB00106084F
:100D3C0008B5024B1B689B68019308BDB0010608FF
:100D4C0008B5024B1B68DB68019308BDB0010608AF
:100D5C0008B5024B1B681B69019308BDB00106085E
:100D6C0008B5024B1B681B6B019308BDB00106084C
:100D7C0008B5024B1B681B6E019308BDAC0106083D
:100D8C0008B5024B1B685B6E019308BDAC010608ED
:100D9C0008B5024B1B689B6E019308BDAC0106089D
:100DAC0008B5024B1B68DB6E019308BDAC0106084D
:100DBC0008B5024B1B681B6F019308BDAC010608FC
:100DCC0008B5024B1B685B6F019308BDAC010608AC
:100DDC0008B5034B1B68D3F88030019308BD0000A5
:100DEC00AC01060808B5024B1B681B68019308BDD3
:100DFC00BC01060808B5024B1B685B68019308BD73
:100E0C00BC01060808B5024B1B689B68019308BD22
:100E1C00BC01060808B5024B1B68DB68019308BDD2
:100E2C00BC01060808B5024B1B681B69019308BD81
:100E3C00BC01060808B5024B1B681B6A019308BD70
:100E4C00BC01060808B5024B1B681B6B019308BD5F
:100E5C00BC01060808B5024B1B685B6C019308BD0E
:100E6C00BC01060808B5024B1B68DB69019308BD81
:100E7C00B401060808B5024B1B681B6A019308BD38
:100E8C00B401060808B5024B1B689B69019308BDA9
:100E9C00C401060808B5024B1B681B6A019308BD08
:100EAC00C401060808B5024B1B685B6A019308BDB8
:100EBC00C401060808B5024B1B689B6A019308BD68
:100ECC00C401060808B5024B1B68DB6A019308BD18
:100EDC00C401060808B5024B1B681B6B019308BDC7
:100EEC00C401060808B5024B1B685B6B019308BD77
:100EFC00C401060808B5024B1B689B6B019308BD27
:100F0C00C401060808B5024B1B681B6C019308BD95
:100F1C00C401060808B5024B1B68DB6C019308BDC5
:100F2C00C401060808B5024B1B681B68019308BD79
:100F3C00D801060808B5024B1B685B68019308BD15
:100F4C00D801060808B5024B1B689B68019308BDC5
:100F5C00D801060808B5024B1B681B69019308BD34
:100F6C00D801060808B5024B1B685B69019308BDE4
:100F7C00D801060808B5024B1B689B69019308BD94
:100F8C00D801060808B5024B1B68DB69019308BD44
:100F9C00D801060808B5024B1B681B6A019308BDF3
:100FAC00D801060808B5024B1B685B6C019308BDA1
:100FBC00C001060808B5024B1B689B6C019308BD69
:100FCC00C001060808B5024B1B685B6B019308BD9A
:100FDC00A801020808B5024B1B681B6D019308BDE4
:100FEC00A801020808B5024B1B68DB6E019308BD13
:100FFC00A801020808B5024B1B681B6F019308BDC2
:10100C00A801020808B5024B1B685B68019308BD78
:10101C00A401060808B5024B1B685B69019308BD67
:10102C00A401060808B5024B1B68DB6A019308BDD6
:10103C00A401060808B5024B1B68DB6C019308BDC4
:10104C00A401060808B5024B1B685B6D019308BD33
:10105C00A401060808B5034B1B68D3F89030019324
:10106C0008BD0000A401060808B5034B1B68D3F8A3
:10107C009C30019308BD0000A401060808B5024B82
:10108C001B681B68019308BDCC01060808B5024B10
:10109C001B685B69019308BDCC01060808B5024BBF
:1010AC001B681B6A019308BDCC01060808B5024BEE
:1010BC001B68DB6B019308BDCC01060808B5024B1D
:1010CC001B685B68019308BDC801060808B5024B94
:1010DC001B689B68019308BDC801060808B5024B44
:1010EC001B68DB68019308BDC801060808B5024BF4
:1010FC001B681B69019308BDC801060808B5024BA3
:10110C001B685B69019308BDC801060808B5024B52
:10111C001B689B69019308BDC801060808B5024B02
:10112C001B68DB69019308BDC801060808B5024BB2
:10113C001B681B6A019308BDC801060808B5024B61
:10114C001B681B6B019308BDC801060808B5024B50
:10115C001B685B6B019308BDC801060808B5024B00
:10116C001B681B6C019308BDC801060808B5024B2F
:10117C001B685B6C019308BDC801060808B5024BDF
:10118C001B681B68019308BDA001060808B5024B3B
:10119C001B685B68019308BDA001060808B5024BEB
:1011AC001B689B68019308BDA001060808B5024B9B
:1011BC001B685B6A019308BDA001060808B5024BC9
:1011CC001B68DB6A019308BDA001060808B5024B39
:1011DC001B681B6B019308BDA001060808B5024BE8
:1011EC001B685B6C019308BDA00106080021FFF78A
:1011FC0011BF10B5836804460BB902F084FDC368B7
:10120C009847A3681BB103222146204698472046E5
:10121C00BDE81040102102F070BD704700207047EF
:10122C0010B50446102102F068FD204610BD08B52B
:10123C00FFF7F6FF08BD10B58368044613B103220F
:10124C0001469847204610BD002230B54FF69C74DD
:10125C00026084808D888C800C68858004600A60B4
:10126C0030BD10B504460068FFF790FF204610BD56
:10127C0038B5C468F4B12378022B03D104F10C0007
:10128C00FFF7EFFF656835B12846FFF7D4FF102153
:10129C00284602F032FDA56835B12846FFF7CBFF92
:1012AC001021284602F029FD2046BDE838401421C3
:1012BC0002F023BD38BD0B68036013B15A680132CC
:1012CC005A60704773B50E46044656F8043B0D46FB
:1012DC0001A831460093FFF7EEFF009B019A2360B3
:1012EC000023626001A801930093FEF7B5FF30461E
:1012FC00FEF7B2FF2846082102F0FFFC204602B0A0
:10130C0070BD13B56C460B46024603C884E8030057
:10131C0093E8030082E8030094E8030083E80300E9
:10132C0002B010BD826810B50AB902F0ECFCC368BB
:10133C00BDE81040184708B5006800F11001FFF730
:10134C00F1FF08BD826810B50AB902F0DCFCC36875
:10135C00BDE81040184708B5006800F11001FFF710
:10136C00F1FF08BD38B500230446036010200D467C
:10137C00FEF78BFE28B10123C0E90133024BC56097
:10138C0003602060204638BDD4440A0838B50023D9
:10139C0083608B6804460D462BB102229847EB689C
:1013AC00E360AB68A360204638BD0000F0B589B09F
:1013BC0004686846FFF748FF4FF00203D4E84F2F4C
:1013CC00002A03D1C4E8413F0029F7D125D104F10B
:1013DC000C0569462846FFF737FF0123BFF35B8FE7
:1013EC0063700020BFF35B8F04F1080353E8006FB8
:1013FC0043E80002002AF9D1BFF35B8F6EB1FFF70F
:10140C0019FE78B129463046FFF78CFF3046FFF7BE
:10141C0012FF1021304602F070FC6846FFF721FFE6
:10142C0009B0F0BD314602A8FFF7B0FFE068B4F98F
:10143C00105008B102F012FE06901020ADF81C50AE
:10144C00FEF723FE0546E8B1002787601820FEF75B
:10145C001CFE044688B10146876002A8FFF751FFC5
:10146C00049BA268A360059B0492E26806A9E36052
:10147C0004F110000592FFF7E7FE084B2C60EB60BF
:10148C00074BAB6006A8FFF7ECFE02A8FFF7D3FEF4
:10149C00002229460348FFF7D5FDB7E743130A0896
:1014AC00D9150A08FF110A082DE9F0478AB005463C
:1014BC000C46174698469DF84890FFF7E7FD07AE97
:1014CC00824638BB4FF62E73059005A93046ADF811
:1014DC001830FFF7B9FE1420FEF7D7FD044648B1CB
:1014EC00022303700123C0E901AA437031460C307A
:1014FC00FFF7AAFE2846214640F8044BFFF732FFBF
:10150C003046FFF7AEFE05A8FFF7ABFE28460AB043
:10151C00BDE8F0870C234FF0000A1420CDE908AA8F
:10152C000793FEF7B2FD014628B1C0E901AA80F885
:10153C0000A080F801A004A80391FFF713FF224B31
:10154C0008200893FEF7A1FD824628B1039B04A94D
:10155C0040F8043BFFF7AFFE424639462046009662
:10156C005FFA89F3CDF824A0FFF798FDB8B9039B77
:10157C005B7803F0FF0293B94FF69C7305A903A89F
:10158C000592ADF81830FFF711FF05A8FFF769FEBB
:10159C0005A80999FFF796FE06A8FEF75DFE039BCA
:1015AC0004A906A80593FFF786FE059B069A2B60F7
:1015BC0000236A6006A806930593FEF74DFE04A867
:1015CC00FEF74AFEA2E700BF9D160A08022AF8B5EC
:1015DC00054607D0032A18D0012A01D10B680360F5
:1015EC000020F8BD18200E68FEF74FFD044650B1E0
:1015FC003146FFF7CBFE3069B6F9147008B102F032
:10160C002DFD2061A7822C60EAE70468002CE7D04E
:10161C0004F11000FFF725FE2046FFF70CFE182101
:10162C00204602F06AFBDBE738B5002383608B6849
:10163C0004460D462BB102229847EB68E360AB6879
:10164C00A360204638BD022A70B5044607D0032A91
:10165C0012D0012A01D10B680360002070BD142048
:10166C000E68FEF712FD054620B13146FFF7DCFF90
:10167C00337C2B742560F0E70468002CEDD02046F9
:10168C00FFF7D9FD1421204602F037FBE5E70000F7
:10169C00F0B5044689B00D4601A81146FFF712FEBD
:1016AC00A4B124B21DB1284602F0D8FC054601A80D
:1016BC0003A90395ADF81040FFF778FE03A8FFF7D8
:1016CC00D0FD02A8FEF7C8FD09B0F0BD0123019DB5
:1016DC00D5E84F2F002A03D1C5E8413F0029F7D1A7
:1016EC00EFD12B73BFF35B8F6B70BFF35B8F2B1D35
:1016FC0053E8006F43E80042002AF9D1BFF35B8F37
:10170C00002EDED02046FFF795FC074660B1304630
:10171C0005F10C01FFF716FE3046FFF78CFD10218A
:10172C00304602F0EAFACCE7314603A8FFF77CFF1B
:10173C002B7B10208DF81C30FEF7A7FC0546D0B192
:10174C0087601420FEF7A1FC044678B1014687603F
:10175C0003A8FFF7D6FD059BA268A360069B059224
:10176C00E268E3609DF81C3006922374064B2C60F3
:10177C00EB60064BAB6003A8FFF75DFD002229462A
:10178C000348FFF75FFCC7E763130A0853160A0800
:10179C00FF110A087047F8B5064615460C468F1817
:1017AC00BC4206D0336830469B6814F8011B98473E
:1017BC00F6E72846F8BD0022007CFFF7D9BA0021D5
:1017CC00007CFFF7DDBA0021007CFFF7E1BA0021B5
:1017DC00007CFFF7E5BA0021007CFFF7E9BA10B5F1
:1017EC000446142102F089FA204610BD10B54FF4BE
:1017FC007A73044608460021C4E90113034B1146D1
:10180C0023602074FFF7E4FA204610BDF0440A0868
:10181C00F8B50E46002400F10807051D17F8011D48
:10182C000A22304601F0CBFAAF42044401D12046E3
:10183C00F8BD002CF2D02E21304601F0A7FA04445A
:10184C00ECE7000010B50446044B1122002140F8CF
:10185C00043B02F0ADFB204610BD00BF18450A0842
:10186C000346074A10B543F8042B01F1100251F856
:10187C00044B914243F8044BF9D10A781A7010BD0D
:10188C0018450A08024AC0E9002104220275704773
:10189C0018450A0810B59DF8084044EA03240423AF
:1018AC0044EA024444EA01644460037510BD00003C
:1018BC0037B5044D05609DF818500095FFF7EAFF09
:1018CC0003B030BD18450A08012200F1100313F8CB
:1018DC00101C1846012908D153F8041C02EB4102D4
:1018EC00013A03F11003F2D17047022904BF53F8F7
:1018FC00041C5218F4E70EB42DE9F04187B000AF88
:10190C0007F1340555F8048B04462B46424610214A
:10191C0007F108007D60FFF749FC0F281BD900F187
:10192C00080323F007036E46ADEB030D4246411C42
:10193C002B4668467D60FFF739FC021E04DD2368E8
:10194C00694620469B689847B5461C37BD46BDE89E
:10195C00F04103B070470028F7D0236802469B681B
:10196C00204607F108019847EFE710B504460368D5
:10197C009B689847A368013BA3602BB9236820465A
:10198C00BDE81040DB68184710BD07B503688DF83B
:10199C00071001229B680DF10701984703B05DF811
:1019AC0004FB38B50B68044603604D6843689D42E0
:1019BC000CD015B16B6801336B60606828B143685B
:1019CC00013B43600BB9FFF7D0FF6560204638BD83
:1019DC000B461146002210B50446C0E90022836074
:1019EC000BB9204610BDFFF7DCFFFAE70346806811
:1019FC0020B30278032A1AD8DFE802F00417021B7E
:101A0C00052070471B685A684368D05C2D2812D09B
:101A1C00A0F13003092B0ED974280ED066280CD0F7
:101A2C00A0F16E03584258417047062070470020C1
:101A3C00704704207047032070470220704710B590
:101A4C000446FFF7D3FF02280ED0C31EDBB2012BD6
:101A5C0014D82268A36850685B680A22BDE810405D
:101A6C000021184402F0D4BB2268A36852685B685A
:101A7C00D05CA0F174035842584110BD0020FCE723
:101A8C000B461146002210B50446C0E900220D4851
:101A9C00C4E90202A3B11A78032A06D082B90A68F3
:101AAC0050685A68825C6E2A07D00A685868526877
:101ABC009B6802441B1AA260E3602046FFF771FF8B
:101ACC00204610BDA9440A0838B500250B4604462B
:101ADC001146C0E90055C0E90255C0E904554BB1A7
:101AEC001A78012A06D103F11002DB688260436187
:101AFC00FFF757FF204638BD10B54369044663B164
:101B0C008068013BE0601030A0602061636113B11C
:101B1C00FFF7DAFEA060012000E0184610BD10B5FA
:101B2C007D210446FFF731FF01232046237110BDB0
:101B3C0008B50379012B02D0022B04D008BD2C214F
:101B4C00FFF723FFFAE73A21FAE710B50446FFF74F
:101B5C00EFFF20467B21FFF718FF0023204623715F
:101B6C0010BD000038B504460D46FFF7E1FF2368B1
:101B7C0020462A46DB6803499847012320462371F7
:101B8C0038BD00BF24450A0838B504460D46FFF79A
:101B9C00CFFF236820462A46DB6803499847012378
:101BAC002046237138BD00BF27450A082DE9F041B6
:101BBC000D46174622210446FFF7E7FE2946DFF8BB
:101BCC0098802F44BD422A4638D015F8016B222E3E
:101BDC0003D05C2E01D01F2EF4D82368521A204655
:101BEC009B6898475C212046FFF7CFFE0D2E0AD844
:101BFC00072E1CD9A6F10803052B18D8DFE803F033
:101C0C000D0F11171315222E01D05C2E0FD131465A
:101C1C002046FFF7BAFE2946D4E76221F8E7742183
:101C2C00F6E76E21F4E76621F2E77221F0E723680C
:101C3C00324641462046DB689847ECE78D4204D09B
:101C4C00236820469B686A1A984722212046FFF792
:101C5C009CFEBDE8F08100BF2A450A0870B5044619
:101C6C000D461646FFF764FF204632462946FFF71D
:101C7C009DFF02232046237170BD70B504460D46AE
:101C8C001646FFF755FF204632462946FFF78EFFD2
:101C9C0001232046237170BD80680368DB681847F8
:101CAC007047084611B10B685B681847704770475E
:101CBC007047704738B504460D4600682E2102F077
:101CCC00B0F923680246C01A286020B1137803B11A
:101CDC0001322068226038BD10B504460C2102F098
:101CEC000CF8204610BD10B50446042102F005F88E
:101CFC00204610BD10B50446042101F0FEFF20461D
:101D0C0010BD08B502F097F9B0FA80F0400908BD93
:101D1C0010B50C4601F098FD844205D101F094FDFC
:101D2C00BDE8104001F076BD01F0CCFD844202D13B
:101D3C0001F0C8FDF4E701F0F1FC844205D101F09B
:101D4C00EDFCBDE8104001F0E6BC2CB12368204648
:101D5C00BDE810405B68184710BD38B5054608460D
:101D6C000C4602F096F9214602462846BDE838405A
:101D7C00FFF783BF70B5044608460D4602F089F99B
:101D8C002368024629462046BDE87040DB681847A8
:101D9C0007B503688DF807100122DB680DF1070108
:101DAC00984703B05DF804FB0EB403B503AB53F8CE
:101DBC00042B0021006A019301F01EF802B05DF8BB
:101DCC0004EB03B0704700002DE9F74F4FF01408F7
:101DDC00D0E9009517464C4608FB05F50093AB106F
:101DEC00174D5D43002D23DD6E1008FB06F004EB50
:101DFC00000ABAF804B03A465F4528BF5A46205844
:101E0C00019102F04EF90123019978B95F4503D194
:101E1C00009A13703546E5E78CBF0120002000289E
:101E2C00F8D0AE1B0AF11404013EF3E7C00FF6E73D
:101E3C00A4EB09040248A410604303B0BDE8F08F82
:101E4C00CDCCCCCC7FB50369067E019103B3F9B13F
:101E5C00002500F10C04039503A901A8FFF72AFF44
:101E6C000146A8B10DF10B032046039A8DF80B50D7
:101E7C00FFF7AAFF9DF80B3053B11423246803FB22
:101E8C000044B4F906300834002BA8BFDEB2E3E7F7
:101E9C00304604B070BD000010B50A4C2378BFF377
:101EAC005B8FDB070BD42046FEF700F938B12046D8
:101EBC00FEF701F9044A0549054801F019FF0448E9
:101ECC0010BD00BF140D002084000020BD1C0A08AA
:101EDC001400002010B50A4C2378BFF35B8FDB078E
:101EEC000BD42046FEF7E2F838B12046FEF7E3F8B3
:101EFC00044A0549054801F0FBFE044810BD00BF2B
:101F0C00180D002084000020BB1C0A0818000020BB
:101F1C0038B500250446C0E90055C0E90455856074
:101F2C00856140F8245FFEF7C3FEFFF7B5FFE06163
:101F3C00FFF7D0FF25732062204638BD10B50B4C3F
:101F4C002378BFF35B8FDB070ED42046FEF7AEF889
:101F5C0050B10748FFF7DCFF2046FEF7ACF8054A06
:101F6C000549034801F0C4FE014810BD100D0020C6
:101F7C00200D002084000020FB230A080023024AC5
:101F8C0002490348FFF736B8D9220A0865220A0825
:101F9C00E5210A0800231A4619461846FFF72AB805
:101FAC0037B504460D6951F8043B01A80093FFF7BF
:101FBC0082F96A4629462046FFF70AFD01A8FEF77A
:101FCC004BF9204603B030BD37B504468D6851F847
:101FDC00043B01A80093FFF76EF96A462946204698
:101FEC00FFF772FD01A8FEF737F9204603B030BDAC
:101FFC0037B50446CD6851F8043B01A80093FFF7B0
:10200C005AF96A4629462046FFF73AFD01A8FEF721
:10201C0023F9204603B030BD70B58AB00D46014699
:10202C0004A8FFF7D1FF144E04A8FFF765FDE8B133
:10203C00684604A9FFF7DCFF31460298FFF761FE02
:10204C00044610B12C1E18BF012401A8FEF704F998
:10205C00002CE9D0684604A9FFF7A2FF6846FFF7F9
:10206C00EEFC286001A8FEF7F7F8DDE705A8FEF7FF
:10207C00F3F80AB070BD00BF30450A0837B50C46FE
:10208C0019492046154601F0D6FF48B901F0DCFB92
:10209C004FF4165101F0BAFB01F0D6FB03B030BD82
:1020AC002046124901F0C7FF40B901F00BFC4FF478
:1020BC00165101F0ABFB01F005FCEFE720460C4993
:1020CC0001F0B9FF70B94FF4165301A928460193DA
:1020DC00FFF7A2FF01F022FB019901F019FB01F0BF
:1020EC001DFBDBE70020D9E735450A083C450A080B
:1020FC003F450A0870B51426D0E90053044606FB88
:10210C000356AE4205D005F10800FFF7F3FF143576
:10211C00F7E72068FFF73AF8204670BD70B5044623
:10212C00D0E9005305EB0316AE4204D0284600F06C
:10213C00B8FE1035F8E72068FFF728F8204670BD88
:10214C0010B504460C30FFF7D5FF2046FFF7E6FF2D
:10215C00204610BD10B50446034B40F8043BFFF776
:10216C00EFFF204610BD00BF2C440A0810B50446F2
:10217C00FFF7F0FF2046242101F0BFFD204610BDE3
:10218C0010B50446024B0360FFF7E4FF204610BD78
:10219C00DC450A0810B50446FFF7F2FF204624215F
:1021AC0001F0ABFD204610BD0022C0E90022826088
:1021BC0010B50C680A6004604C684A6044608C6816
:1021CC008A60846010BD10B5044603681868FEF779
:1021DC0087FD204610BD00002DE9F04F87B003931A
:1021EC001C4B80465B688946C3F3080316466BB9E3
:1021FC00FFF7A4FE044600F12403406A0593FEF7A2
:10220C0067FD237B2BB105A8FFF7DDFF07B0BDE809
:10221C00F08F01235FFA89F92373D4E9005305EB9E
:10222C00830AAA4512D055F8047B3146381DFFF7B6
:10223C0009FE8145F5D3039A3B680092D3F808B0A8
:10224C004A46334641463846D847EAE700232373CB
:10225C00D9E700BF00ED00E02DE9F74F9B461A4B84
:10226C0080465B688946C3F3080316466BB9FFF7D3
:10227C0065FE044600F12403406A0193FEF728FD35
:10228C00237B2BB101A8FFF79EFF03B0BDE8F08FB5
:10229C000123F6B22373D4E9005305EB830A5545A9
:1022AC000ED055F8047B5946381DFFF7CBFD8642FE
:1022BC00F5D33B684A4641463846DB689847EEE71B
:1022CC0000232373DEE700BF00ED00E02DE9F341AE
:1022DC00164B05465B680F46C3F308031BBBFFF7A1
:1022EC002DFE044600F12403406A0193FEF7F0FC36
:1022FC00D4E90063462406EB8308B04509D101A854
:10230C00FFF761FFA542B4BF0020012002B0BDE879
:10231C00F08156F8040B39460430FFF793FD8442E4
:10232C00A8BF0446E9E70020F0E700BF00ED00E09D
:10233C000B4670B5044605C800EB8202824207D0FA
:10234C0001461D6851F8046BAE4203D00846F5E710
:10235C00002070BD521A01F011FE63680120013B90
:10236C006360F6E71FB5044600F12403406A01914F
:10237C000393FEF7ADFC204601A9FFF7D9FF18B176
:10238C0063680BB9FFF706FE03A8FFF71CFF04B048
:10239C0010BD182370B50446D0E9045603FB06564D
:1023AC00AE4215D0204605F11001FFF7C1FF63685E
:1023BC000BB9FFF7EFFDE06929690368DB68984703
:1023CC00696919B1206A0368DB6898471835E7E733
:1023DC001826D4E9045306FB0356AE4204D0284613
:1023EC0000F05FFD1835F8E70023636170BD73B52D
:1023FC000446FFF7CFFD04F12403606A0193FEF756
:10240C0067FC2046FFF7C5FF01A8FFF7DCFE606AFA
:10241C0008B1FEF755FCD4E90453182606FB035605
:10242C00AE4204D0284600F03CFD1835F8E7206990
:10243C00FEF7ACFE2068FEF7A9FE204602B070BD88
:10244C008842F8B506460C46154627D9904226D246
:10245C000026A2F114056C1AA1F114070444AF4232
:10246C003DD0A4B12B682360AB88A380B5F90630AE
:10247C00C4E902662661E380AB68A360AE60E368E2
:10248C00EA68E260EB6023692A6922612B6105F13D
:10249C000800FFF72FFE143D143CE0E71FD0002787
:1024AC00AC421CD0A6B123683360A388B380B4F9C6
:1024BC000630C6E902773761F380A368B360A76082
:1024CC00F368E268F260E360336922693261236188
:1024DC0004F10800FFF70EFE14341436E0E7F8BDE3
:1024EC00F8B5D0E901539D4204460E4617460DDB64
:1024FC000135002D006804DDA900FEF74FFE18B968
:10250C00F8BDFEF743FE00202060A56025686268D8
:10251C0005EB86019200A2EB8602081D01F02EFD50
:10252C0045F826706368012001336360E8E737B52E
:10253C00044600F12403406A0D460193FEF7C8FBE4
:10254C00D4E9003103EB810083421A460AD01268A9
:10255C000433AA42F8D101A8FFF735FE002528461E
:10256C0003B030BD2A462046FFF7BAFF05460028C7
:10257C00F1D06368012B01D1FFF700FD01A8FFF733
:10258C0022FEECE78842F8B504460D46164614D9EF
:10259C00904213D2A2F11006751AA1F110072C4427
:1025AC00B74218D01CB13146204600F0F4FC30463E
:1025BC0000F077FC103E103CF2E70CD0B5420AD08C
:1025CC001CB12946204600F0E6FC284600F069FCC8
:1025DC0010351034F2E7F8BD70B50E1E054611DD4E
:1025EC003001FEF7CBFD044658B1D5E9001201EBE2
:1025FC000212FFF7C7FF2868FEF7C8FD01202C6008
:10260C00AE6070BD0024F6E72DE9F04F9146002333
:10261C00462297B00391D9F8041004469942C0E9B8
:10262C000033C0E90233C0E90433CDE90A33027642
:10263C000C9323DCD9E90057142303FB0757AF4253
:10264C003BD029460DA800F0A6FC0DA911A80B9EA5
:10265C0000F0A1FCDDE90B1399421BDA0A9B0B9AE3
:10266C0003EB0616314603EB021206F11000FFF7DE
:10267C0089FFEEB90B9B01330B9311E00AA8FFF70E
:10268C00ABFF0028D6D10AA8FFF748FD204617B0AB
:10269C00BDE8F08F01310AA8FFF79EFF0028DDD1BD
:1026AC0011A800F0FEFB0DA800F0FBFB1435C6E7EB
:1026BC00304611A900F06FFCDCE700264FF0140A3D
:1026CC003746CDE90D660F96DDE90A239E4280F26E
:1026DC0097803301D35808930BB90136F4E70AFB02
:1026EC0006F3099702930DAD09A908A8FFF7E2FAC2
:1026FC0083460028F1D00146099A28460DF11F03A4
:10270C008DF81F70FFF760FB9DF81F800190B8F1EA
:10271C00000F66D1BDF82430CDE91388ADF84830F0
:10272C004FF6FF73CDF844B0ADF84A30CDF8548075
:10273C00D5E9013293421ADB03F1010BBBF1000F17
:10274C004ADD0AFB0BF0FEF719FD0490002845D07A
:10275C00D5E900120AFB0212FFF772FE049B2868EF
:10276C000493FEF713FD049BC5F808B02B60019B86
:10277C00D5F800B00AFB03F36A680BEB030101F117
:10278C0014000AFB02B204910593FFF759FE049959
:10279C00A9B1119A059B4BF80320BDF848308B80EA
:1027AC00BDF94A30C1E902770F61CB80139B8B6076
:1027BC00149B1397CB60159B14970B6115976B6843
:1027CC0001336B6013A8FFF795FCB8F1000F08D02C
:1027DC000DA8FFF78FFC56E74346C0E74FF0010802
:1027EC00F0E7019B2D680AFB0355089B1B782BB95E
:1027FC00D9F80030029A13441B7CEB80083573E740
:10280C002168226062686360A3680B920C9A0C9337
:10281C00E368A2600D9A0D932369E2600E9A0E9301
:10282C00636922610F9A0F93039B0A91626123766D
:10283C00CEE700007FB505460E460446084B114610
:10284C0045F8043B01A8FDF73FFF314601AA284695
:10285C00FFF7DAFE01A8FDF721FD204604B070BD9C
:10286C002C440A08F0B50F4687B038462549164661
:10287C001D460C9C01F0DFFB00BBE4B12946684609
:10288C00FFF792FC2420204901F039FA054670B17B
:10289C00694603A8FDF718FF314603AA2846FFF73F
:1028AC00C9FF03A8FDF7FAFC184B2C622B60684695
:1028BC00FDF7F4FC2C46204607B0F0BD3846144911
:1028CC0001F0B9FBE0B9002CF5D029466846FFF7BA
:1028DC006BFC24200C4901F012FA05460028E6D0C6
:1028EC00694603A8FDF7F0FE314603AA2846FFF718
:1028FC00A1FF03A8FDF7D2FC064B2C622B60D6E798
:10290C000024D8E747450A089C470A08DC450A0812
:10291C004B450A08C4450A08014B024A1A60704725
:10292C001C0D00205C450A082DE9F047089DD0F8E5
:10293C00209004460E461746984600F085FF8145C8
:10294C004DD02B79190704D520466A695449FFF7F5
:10295C002BFAB8F1000F0DD05B212046FFF718FAC7
:10296C0041462046FFF706FA236802222046DB6820
:10297C004C4998472B79DA0724D5D5F808802F21B4
:10298C00404601F0A0FB08B100F101084146204689
:10299C00FFF7F0F92B799B0708D53A212046FFF772
:1029AC00F7F92046EA684049FFF7FEF92A792368CF
:1029BC0012F0040F20464FF00202DB6814BF3B49B3
:1029CC003B4998472B7958071DD529690B461A4660
:1029DC0013F8010B60B1202808D11946F7E73548E8
:1029EC0000F067F90028ACD0BDE8F0872828EED1BC
:1029FC002368521A2046DB68984723680422204635
:102A0C00DB682D49984700213846FEF7EBFA014662
:102A1C002046FFF7AFF9236802222046DB682449E1
:102A2C0098471EB131462046FFF7A4F92B7913F0D5
:102A3C00300F2CD023682149DB68022220469847AE
:102A4C002B79D9060AD52368072220461C49DB6856
:102A5C0098472046AA691B49FFF7A6F92B799A06D5
:102A6C0011D5DB0605D5236802222046DB680F4909
:102A7C0098472368204614490A22DB689847204669
:102A8C00E969FFF777F95D212046FFF781F92368A3
:102A9C002046BDE8F0470222DB680C49184700BF0E
:102AAC0060450A0867450A0824450A086A450A0869
:102ABC006F450A08480D00206D450A0872450A0842
:102ACC0075450A087D450A0880450A08A7440A0886
:102ADC002DE9F04385B0D0F8209005460F4690467E
:102AEC001E460C9C00F0B0FE814505D1494800F013
:102AFC00E0F8002840F08A804FF000092B6A464A23
:102B0C0001A8019203938DF80890FFF71EF849462F
:102B1C004046FEF767FA80464049012201A8FFF7BC
:102B2C009DF84146FFF719F93FB13D49012201A833
:102B3C00FFF794F83946FFF710F93EB139490122F5
:102B4C0001A8FFF78BF83146FFF707F92379DF0768
:102B5C000ED5A6682F21304601F0B5FA00B1461CFF
:102B6C003149012201A8FFF779F83146FFF7F5F852
:102B7C0023799E0707D52D49022201A8FFF76EF88D
:102B8C00E168FEF7EFFF2379580714D52669334621
:102B9C001F4613F8012B2AB1202A01D11E46F7E754
:102BAC00282AF5D10222224901A8FFF757F831460D
:102BBC00BA1BFFF762F82379190707D51D490122C3
:102BCC0001A8FFF74BF86169FEF7DEFF2379DA06FF
:102BDC0008D5042218490DEB0200FFF73FF8A16954
:102BEC00FEF7C0FF23799B0607D51449062201A8DE
:102BFC00FFF734F8E169FFF7B0F801A8FEF78FFF93
:102C0C00286A022203680E49DB68984705B0BDE8C4
:102C1C00F08300BF480D0020AC450A083A450A086D
:102C2C008B450A088D450A088F450A0891450A0804
:102C3C0094450A0822430A0897450A089C450A0845
:102C4C00A7440A08002340681A46FEF737BA002248
:102C5C0002214068FEF742BA002240681146FEF796
:102C6C0035BA002240681146FEF740BA002340688E
:102C7C001A461946FEF742BA002340681A4619460E
:102C8C00FEF744BA00214068FEF768BA002140689C
:102C9C00FEF76CBA0022406881F00101FEF73EBAE3
:102CAC0000224068FEF74ABA002240681146FEF73F
:102CBC004DBA002240681146FEF738BA70B5154679
:102CCC008EB0044608A8FEF7BDFD1122002103A812
:102CDC0001F06EF90026284601F0DBF90A4B00964C
:102CEC0081B25B68284603AAFEF764F930B131461D
:102CFC002046FEF7C7FD20460EB070BD204603A946
:102D0C00FEF7AEFDF7E700BFC8110020034A044BE5
:102D1C00042814BF10461846704700BF480D002009
:102D2C00C8110020024B034A1A6000225A607047F7
:102D3C00480D002024460A08F8B506460D46002426
:102D4C008F18BD420CD0336830469B6815F8011BB8
:102D5C009847031E01DB1C44F3E7002C08BF1C46FC
:102D6C002046F8BD70B505460C46084649B101F041
:102D7C0090F92B68024621462846BDE87040DB6876
:102D8C00184770BD08B5FFF7EDFF08BD03689B68D9
:102D9C00184738B50D210546FFF7F8FF0A21044600
:102DAC002846FFF7F3FF204438BD38B50546FFF73A
:102DBC00D9FF04462846FFF7ECFF204438BD00231A
:102DCC00012A98BF0A2230B58BB00C468DF82430FE
:102DDC0009A92546B4FBF2F404FB1253DBB2092B10
:102DEC0094BF30333733DBB2AA4201F8013DF0D93E
:102DFC00FFF7B8FF0BB030BD2DE9F04186B000AF46
:102E0C0005460E46381D142114463B60FEF7CEF9DC
:102E1C0013280ED82846391DFFF7A4FF04461EB10F
:102E2C002846FFF7B6FF044420461837BD46BDE8D8
:102E3C00F08100F1080323F00703E846ADEB030D26
:102E4C002246411C3B686846FEF7B0F969462846A5
:102E5C00FFF788FF0446C546E1E710B50446FEF7C8
:102E6C00EAF9204610BD000000230348034A044938
:102E7C00836000F03DBF00BF500D00208400002097
:102E8C00672E0A0870B5002604460D4640F8086FF8
:102E9C00FDF70EFF28462570FDF7E4FF204666601F
:102EAC0070BD10B504460068FEF770F9204610BDE1
:102EBC0010B50446006808B1FEF768F90023C4E9B0
:102ECC000133236010BD38B504460D46006801314E
:102EDC00FEF764F910B1C4E90005012038BD10B546
:102EEC000368044623B143688B4201D3012010BD13
:102EFC002046FFF7E8FF0028F9D0A368002BF5D196
:102F0C0022681370F2E770B50E461146044615465A
:102F1C00FFF7E5FF20B92046FFF7CAFF204670BD3A
:102F2C002A4631462068A56001F01AF80021226873
:102F3C00A368D154F2E738B5002304460D46C0E926
:102F4C0000338360037339B1084601F0A2F82946B7
:102F5C0002462046FFF7D7FF204638BD38B5054658
:102F6C0000680C4668B16A688B689A4207D3096896
:102F7C0001F06BF8A368AB600023A36038BDFEF7CB
:102F8C0005F923682B6063686B60A368AB60002352
:102F9C00C4E90033F1E7002310B50446C0E900335F
:102FAC0083600373FFF7DAFF204610BD884210B52B
:102FBC000B46044604D0096821B19A68FFF7A3FFB9
:102FCC00204610BDFFF774FFFAE7002310B5044646
:102FDC00C0E9003383600373FFF7E8FF204610BDA0
:102FEC0038B505460C4649B1084601F052F8214661
:102FFC0002462846FFF787FF284638BDFFF758FFE3
:10300C00FAE770B505460E4609B9002070BD6AB1E5
:10301C00846814442146FFF762FF0028F5D0286825
:10302C00AB683146184401F010F8AC600120EDE7B4
:10303C008A680968FFF7E5BF10B58A680968044615
:10304C00FFF7DFFF10B92046FFF732FF204610BD17
:10305C0008B582683AB921B10878B0FA80F0400915
:10306C0000E0012008BD006809B90078F5E700F020
:10307C00E2FFF2E710B58368934207D90468096848
:10308C00A01801F034F808B1001B10BD4FF0FF3050
:10309C00FBE70022FFF7EEBFF8B51D469A4288BF4A
:1030AC0013460F46144688BF2C460B4988BF1D4655
:1030BC000646FFF740FFBA68A2420AD33968AA4213
:1030CC0094BFC4EB0202C4EB050230462144FFF767
:1030DC001AFF3046F8BD00BFA9440A0810B50446D3
:1030EC008B68FFF7D9FF204610BD006808B100F0CF
:1030FC0025BF704710B50446006818B1FEF746F8B6
:10310C000023236010BD10B50446FFF7F3FF2046E3
:10311C0010BD00000222002010B5084B084C1A60AC
:10312C00084B2060A080A071A360FDF76BFF2046C8
:10313C00BDE81040044A054900F0DABD6C0D0020D2
:10314C00600D00200000FFFF8400002013310A08EE
:10315C0013B503688DF80710DC6B012247F230536E
:10316C000DF10701A04702B010BD10B40368DC6B71
:10317C0047F23053A44610BC604713B5134602689F
:10318C008DF80710D46B0DF107010122A04702B096
:10319C0010BD70477047000010B50446064B08463A
:1031AC00994204F10C0404D000F0B0FD002808BFD3
:1031BC000024204610BD00BF90460A0810B50446F6
:1031CC00AC2100F09AFD204610BDFCF762BF000058
:1031DC0038B50B4B8469054603607CB16368013BD1
:1031EC0063605BB9236820469B689847A368013BE2
:1031FC00A3601BB923682046DB689847284638BD76
:10320C00A0460A0810B50446FFF7E2FF20461C2131
:10321C0000F073FD204610BD70B5044606464D699E
:10322C00044B8C3544F8043B0FCD0FC42B6830464F
:10323C00237070BD18450A0810B543690446B3F8ED
:10324C008620B3F884309A4205D06369B3F88420A1
:10325C001344187910BD03681B6998470028F4D1F2
:10326C004FF0FF30F6E710B543690446B3F88620FB
:10327C00B3F884309A4208D06369B3F88420511CA7
:10328C00A3F884101344187910BD03681B69984780
:10329C000028F1D14FF0FF30F6E7F8B54369174637
:1032AC00B3F88620B3F8843005469A420E4616D001
:1032BC0069693046B1F88430B1F88640E41ABC42F2
:1032CC0028BF3C4604332246194400F049FE6A6983
:1032DC00B2F884302344A2F884302046F8BD036849
:1032EC001B6998470028E3D14FF0FF34F5E7002322
:1032FC004269A2F884304269A2F886307047000017
:10330C002DE9F0431F4603688BB0DB6A05460C467B
:10331C00164698473846FFF7F9FC0368DB68984770
:10332C00002854D033460622012102200097D5F8FC
:10333C001480FDF767FD2023C8F800004FF000084B
:10334C00CDE902386B6901201B6823490193234B9B
:10335C0002AA00934346FDF73DFE6B691868FDF722
:10336C0049FD002833D02846FFF7C1FF0223ADF8F2
:10337C000830E37976BA8DF80C30A3794FF4FA5013
:10338C008DF80D306379ADF80A608DF80E3014F8B5
:10339C00043F8DF80F30FDF705FE6B6906461022D1
:1033AC00186802A9FDF736FD81463046FDF7FAFD97
:1033BC000FCC6E698C360FC6236833702F61B9F150
:1033CC00000F07D02B682846DB6A984740460BB0A5
:1033DC00BDE8F0830120FAE758460A085F460A0860
:1033EC0038B542690446B2F886302BB1B2F8842065
:1033FC009A4201D1FFF77BFF2069FFF787FC036836
:10340C00DB689847F8B163691868FDF7F3FCD0B135
:10341C006069B0F886107F2915D8051DC1F18002AE
:10342C00002300682944FDF7FDFC00280BDD6369CF
:10343C00B3F886200AB9A3F884206369B3F8862010
:10344C001044A3F886006369B3F88600B3F884309F
:10345C00C01A38BD38B5436904461868FDF7CAFC74
:10346C0018B163691868FDF7E5FC6569FDF7EAFCBE
:10347C0028606069112200218C3000F099FD2046F3
:10348C00BDE83840FFF733BF10B5436904461868F0
:10349C00FDF7B0FC08B9002010BD2069FFF736FC21
:1034AC000368DB6898470028F5D063691868FDF756
:1034BC0099FCB0FA80F04009EEE708B5FFF7E4FF9D
:1034CC00003818BF012008BD2DE9F34100274760E3
:1034DC0004460D4616469846FFF7D6FF70B1CDE967
:1034EC00008760693B46324629460068FDF7B2FC0E
:1034FC00002800DA606002B0BDE8F0814FF0FF30C8
:10350C00F8E770B50546FFF7BFFFE8B96B69B3F88C
:10351C008610B3F88420914216D11868FDF76AFC26
:10352C0008B9002070BD6B691868FDF75BFC0128B9
:10353C000446F6D12B6828461B69984730B92B688E
:10354C002846DB6A9847ECE70120EBE72046E9E7E1
:10355C00002310B504460160C0F884308830FEF7B3
:10356C0071F9204610BD0000F8B54FF47A720023B3
:10357C00C0E901320D4A0361026043610446AC208C
:10358C000E46FCF782FD051E05F10C0708D0012341
:10359C00C5E90133064B314638462B60FFF7D8FF9F
:1035AC002046C4E90575FFF7A2FEF8BDA0460A083F
:1035BC007C460A0810B50446FDF744FC014620463B
:1035CC00FFF7D2FF204610BD10B504460068FDF78A
:1035DC0011FC10B12068FDF72DFC204610BD0C30FD
:1035EC00FFF7F2BF2DE9F0431F4603688FB0DB6A8B
:1035FC0006460D46904698471348FFF732FBF0B14C
:10360C0002A8FEF71FF9284600F043FD002481B202
:10361C003B462846009403AAFDF7CCFC90B93368CE
:10362C0009ADD3F82090094B03AC08930FCC0FC510
:10363C00236842462B7030463B4608A9C8470FB05A
:10364C00BDE8F0832046FAE7480D002018450A082B
:10365C00024B1A68024B1A60704700BF1C00002016
:10366C00700D002070474174704708B5007CFDF761
:10367C0049FC20EAE07008BD08B5007CFDF71AFC97
:10368C0020EAE07008BD08B5007CFDF723FC40EA99
:10369C00E07008BD08B5007CFDF714FC40EAE07052
:1036AC0008BD007CFDF71EBC70B5467C04460D467B
:1036BC002EB12946207CBDE87040FDF7F3BB007CA1
:1036CC00FDF720FC0028F4DC304670BD10B5044634
:1036DC00142100F012FB204610BD00004FF0000C2E
:1036EC0010B50446084611464FF47A72C4E901C27B
:1036FC00044A20742260012262741A46FDF7C2FB50
:10370C00204610BD08470A080023007CFDF702BCC8
:10371C000022FFF7F9BF007CFDF7BCBB38B50D4D9F
:10372C002978BFF35B8F11F0010411D12846FCF707
:10373C00BDFC68B12146084A084B0948FFF7CEFF8B
:10374C002846FCF7B8FC074A0749054800F0D0FAB0
:10375C00034838BD740D0020780D0020FC0D0020AE
:10376C00800E00208400002071360A0841747047D6
:10377C00704708B50021007CFDF7FCFB40EAE070C7
:10378C0008BD08B50121007CFDF7F4FB40EAE070B0
:10379C0008BD08B5007CFDF7E5FB20EAE07008BD2C
:1037AC0008B5007CFDF7D6FB20EAE07008BD38B503
:1037BC000446007C0D46FDF7D5FB002801DC607C3F
:1037CC0028B12946207CFDF7DDFB20EAE07038BDEE
:1037DC00007CFDF7DFBB10B50446142100F08DFA18
:1037EC00204610BD10B54FF47A73044608460021EC
:1037FC00C4E90113044B2074236001231146637444
:10380C00FDF790FB204610BD38470A080022007CCB
:10381C00FDF790BB007CFDF795BB000010B504468E
:10382C001422002100F0C4FB054B20466360054BBD
:10383C00E36040F2011323818123238210BD00BF7A
:10384C00C40E0020C50F002030B50F4D87B001A865
:10385C00FFF7E4FF2978BFF35B8F11F0010410D15F
:10386C002846FCF723FC60B1214601AA0748FFF764
:10387C00B9FF2846FCF71FFC054A0649034800F02F
:10388C0037FA024807B030BD940E00209C0E002081
:10389C00840000207D370A0810B50446142200214C
:1038AC0000F086FB054B20466360054BE36040F25D
:1038BC00011323818123238210BD00BF46100020F9
:1038CC004711002010B50F4C86B001A8FFF7E4FF9C
:1038DC002378BFF35B8FDB0710D42046FCF7E6FBA5
:1038EC0060B1012101AA0848FFF77CFF2046FCF7D4
:1038FC00E2FB064A0649044800F0FAF9024806B011
:10390C0010BD00BF980E0020B00E002084000020D7
:10391C007D370A08002240681146FDF7E7BBF0B579
:10392C00154689B011220E460446002103A800F06A
:10393C003FFB284600F0ADFB002781B27368284698
:10394C00009703AAFDF736FB30B139462046FDF748
:10395C0099FF204609B0F0BD204603A9FDF780FF72
:10396C00F7E7002240681146FDF7E0BB00224068F3
:10397C001146FDF7EBBB00224068FDF7DFBB0022D0
:10398C00406881F00101FDF7C9BB002340681A466D
:10399C001946FDF7BBBB002340681A461946FDF7D4
:1039AC00ADBB002240681146FDF790BB00220221FE
:1039BC004068FDF793BB002340681A46FDF77EBBB9
:1039CC000422024B5A60024A1A607047C811002048
:1039DC0068470A08014B1860704700BF20000020A0
:1039EC0008B5134B43B1FFF72FFF03681B699847CA
:1039FC00002801DDAFF300800E4B43B1FFF78EFEC4
:103A0C0003681B699847002801DDAFF300800A4B5F
:103A1C000BB1AFF30080094B43B1FFF753FF0368C1
:103A2C001B699847002801DDAFF3008008BD00BF7B
:103A3C00000000000000000000000000000000007A
:103A4C0008B5FFF7CDFFFDF763F9014B186008BD12
:103A5C00E81100200248034A0349121A00F080BA08
:103A6C000040024004400240C0490A08002307B548
:103A7C001A466FF077010093FDF7F6FA03B05DF884
:103A8C0004FB000007B543880A2B08D0502B0BD140
:103A9C00094B1B684BB103B05DF804EB1847FFF7FB
:103AAC00E5FF03B05DF804FB00231A466FF07701C5
:103ABC000093FDF7D9FAF4E7D411002038B5124C75
:103ACC0000211248FDF78AFB114D2368AB420CBF55
:103ADC00012200220F4B1A7002D0FFF7BBFF2560AA
:103AEC00FDF706F9044600F06BFA0B4B13B12046B8
:103AFC00AFF3008000210848FDF7D8FABDE8384044
:103B0C0000210648FDF7A6BA00400240E1390A0838
:103B1C001E1C279AD011002000000000913A0A08C0
:103B2C0010B50446806808B1FDF7CAF8204610BDF0
:103B3C00172870B5044601D9002070BDA0F10D0303
:103B4C00022B0BD9012826D800F092F80021007C1A
:103B5C00FDF736F980F00100C0B2EEE7134E317874
:103B6C00BFF35B8F11F001050FD13046FCF79EFAC5
:103B7C0058B129460E48FFF785F93046FCF79BFAF9
:103B8C000C4A0D490A4800F0B3F8094B1878FDF7B8
:103B9C0071F90028D0D1123C012C05D8FFF7BEFDDD
:103BAC00007CFDF7A7F9D5E70120C6E7D811002066
:103BBC00DC110020840000202D3B0A08172838B5A2
:103BCC0004460D460AD8FF2908D0FFF7B1FF28B1EB
:103BDC0029462046BDE83840FDF7AAB838BD38B5AF
:103BEC0004460D46FDF7ACF8FF2810D0062804D883
:103BFC004D2323FA00F0C30709D42046FFF798FFA2
:103C0C0028B129462046BDE83840FDF7A1B838BD9B
:103C1C0010B5044609289CBF0A34A4B22046FFF70D
:103C2C0087FF50B103212046FDF77AF8032804D111
:103C3C002046BDE81040FDF793B8002010BD0000F1
:103C4C00002370B5202543801423084E04460380BE
:103C5C00314685600561284600F053F831466060B6
:103C6C00284600F04EF8E060204670BD9C470A08DC
:103C7C0030B50F4D87B02978BFF35B8F11F001047D
:103C8C0013D12846FCF712FA78B101A8FFF7D8FF38
:103C9C00214601AA0748FDF7A9FD2846FCF70BFAB7
:103CAC00054A0649034800F023F8024807B030BD26
:103CBC00EC110020F011002084000020A1170A084C
:103CCC00002313B5074C1A46194620460093FDF7FE
:103CDC00EFFD2046044A054902B0BDE8104000F053
:103CEC0007B800BF0412002084000020C9000A0895
:103CFC000B460146184600F025B9FCF7CAB9FCF78B
:103D0C00C4B9FCF7C4B908B5FDF758FA014900F07D
:103D1C00FBB800BFB8470A087FB500241023CDE9D3
:103D2C000234036815469E6912686B4600948DF840
:103D3C000440B0479DF8043003F00603062B09BF7E
:103D4C0001202046009B2B6004B070BD009890426F
:103D5C0014BF01200620704710B50446024B0360C7
:103D6C0000F0CFF8204610BDF8470A0810B50446FD
:103D7C00FFF7F2FF20460821FFF7BFFF204610BDDA
:103D8C002DE9F041DDF818801F46DDE9083498452F
:103D9C000646154607D1079900F0B6F818B16571BB
:103DAC000020BDE8F0813946304600F0ADF800281F
:103DBC00F6D00123C4F800802571A371F0E738B563
:103DCC0015461C4600F0A0F820B10823E36006233A
:103DDC002560237138BD2DE9F04105460C46164689
:103DEC001F4600F091F848B9032F07D823683246D4
:103DFC0029462046BDE8F0415B691847BDE8F081D3
:103E0C0010B50446024B0360FFF7A6FF204610BD19
:103E1C0058480A0810B50446FFF7F2FF20460C215B
:103E2C00FFF76BFF204610BD2DE9F041DDF818803F
:103E3C00064690450F4615461C460BD0B0682A46E0
:103E4C000368CDF818801E6A39462346B446BDE88F
:103E5C00F0416047194600F057F80028EED00620D4
:103E6C00BDE8F0812DE9F14F0D46DDE90A4BDDE9A6
:103E7C000CA6194681461746984600F045F890B1B5
:103E8C00002D3460377109DB2C44A2450CBF06248D
:103E9C000124B471002001B0BDE8F08F0235F9D1D6
:103EAC000123B371F6E7544506D15946484600F054
:103EBC002BF808B17771EDE7D9F808003A4603689A
:103ECC00CDE90CA6CDE90A4BDC6929464346A4464C
:103EDC0001B0BDE8F04F60472DE9F04107460C46B4
:103EEC0015461E46FFF76BFF48B9B8682A460368AB
:103EFC0021469F693346BC46BDE8F0416047BDE8AA
:103F0C00F081704700207047814208B50ED04068A0
:103F1C0003782A2B0CD049680B782A2B08BF013167
:103F2C0000F089F8B0FA80F0400908BD0120FCE7E8
:103F3C000020FAE70A22002100F06AB90A220021C7
:103F4C0000F066B910B504460448134620B10A4681
:103F5C0002202146AFF3008010BD00BF000000001E
:103F6C000A44914200F1FF3300D1704710B511F8AB
:103F7C00014B914203F8014FF9D110BD884210B5A5
:103F8C0001EB020402D98442234607D8431EA14206
:103F9C0008D011F8012B03F8012FF8E70146024471
:103FAC008A4200D110BD13F8014D02F8014DF7E71C
:103FBC0003460244934200D1704703F8011BF9E712
:103FCC0038B50D4B04461D68AB6B7BB91820FDF75B
:103FDC00D5F80A4A0A4BA863C0E90023094B012211
:103FEC0083600B2383810023C0E904230022AB6B85
:103FFC001C615A6138BD00BF200000200E33CDABD0
:10400C0034126DE6ECDE05000346C9B2184613F80F
:10401C00012B12B18A42F9D17047002918BF002038
:10402C00704710B50446FFF7EFFF18B9204600F0B3
:10403C0030F8204410BD10F8012B11F8013B012A77
:10404C0028BF9A42F7D0D01A7047034611F8012BBB
:10405C0003F8012B002AF9D170470000024B0146EE
:10406C00186800F003B800BF2000002070B50446AB
:10407C0008460D4600F00DF8461C31462046FDF76B
:10408C00A5F8044618B132462946FFF769FF2046C9
:10409C0070BD034613F8012B002AFBD1181A013806
:1040AC00704710B56AB10139841810F8013B11F84A
:1040BC00012F934203D1A04201D0002BF5D1981AC5
:1040CC0010BD1046FCE738B503460C4669B9BDE88F
:1040DC003840FFF799BF0546431C21461846FFF7A9
:1040EC0093FF0028F7D1284638BD0025F5E7F0B539
:1040FC000C7864B103461A7818465E1C0AB910464F
:10410C0005E0944208D10D4615F8012F02B9F0BD17
:10411C0013F8017F9742F7D03346ECE72DE9F047CF
:10412C008C468646394E60461CF8014BA55D15F051
:10413C000805F8D12D2C33D14FF001089CF8004024
:10414C0000F1020C002B5CD0102B0CD1302C0AD1BE
:10415C009CF8000000F0DF0058284DD110239CF88B
:10416C0001400CF1020C002608F10047013FB7FB9F
:10417C00F3F9304603FB197AA4F13005092D18D850
:10418C002C46A34224DD751C07D081451DD301D1DB
:10419C00A2451ADB012600FB03401CF8014BEBE7A0
:1041AC002B2C08BF9CF80040A84608BF00F1020C5D
:1041BC00C8E7A4F14105192D01D8373CE1E7A4F17A
:1041CC006105192D04D8573CDBE74FF0FF36E4E7C7
:1041DC00731C06D122233846CEF8003042B9BDE814
:1041EC00F087B8F1000F00D04042002AF7D00EB192
:1041FC000CF1FF311160F2E73024002BB3D108230E
:10420C00B1E7302CA4D00A23ADE700BF92480A08CE
:10421C0013460A46014602480068FFF77FBF00BFFD
:10422C00200000201D000A085D000A0885000A080D
:10423C0089000A0800000000616E616C6F6776618E
:10424C006C7565002F6170692F00505554004745FF
:10425C00540046756C6C204461746100636F756E1C
:10426C0074002D2D2D2D2D2D2D2D2D2D2D2D2D2D58
:10427C002D2D2D2D0032207365636F6E64730048F5
:10428C0055452044415441004475736B007B226FAB
:10429C006E223A20747275652C20227363656E65EC
:1042AC00223A2022647052617153447648366D3044
:1042BC006E7832222C20227472616E736974696F6D
:1042CC006E74696D65223A2033307D004475736BD2
:1042DC002032007B226F6E223A20747275652C207E
:1042EC00227363656E65223A20224F325077525802
:1042FC006C444C736C79414964222C202274726199
:10430C006E736974696F6E74696D65223A2033300F
:10431C007D004E69676874007B226F6E223A2074B0
:10432C007275652C20227363656E65223A202262B9
:10433C0062492D4147377264585656797849222C78
:10434C0020227472616E736974696F6E74696D6525
:10435C00223A2033307D00444159007B226F6E227B
:10436C003A20747275652C20227363656E65223A4F
:10437C00202276596D6175594352677A55467A33C6
:10438C002D222C20227472616E736974696F6E74A5
:10439C00696D65223A2033307D00446179005468A0
:1043AC006973206973206D61696E206C6F6F70008A
:1043BC00616B486A7958617249537A646D4E3665FF
:1043CC0034726A4C6E357078637049566769417AFD
:1043DC004F33475A6C2D316F002F6C6967687473BB
:1043EC002F35002F67726F7570732F332F616374C5
:1043FC00696F6E007B227374617465223A207B2294
:10440C00687565223A20223130303030227D7D00B3
:10441C006E756C6C000000000000000000000000D5
:10442C000000000000000000A5000A08CB000A08EC
:10443C0000000000000000004D010A0881010A087C
:10444C0035290A08CD000A08000000000000000011
:10445C0001010A0815010A08416363657074002A9A
:10446C002F2A0020485454502F312E300D0A00634F
:10447C006C6F736500436F6E6E656374696F6E006D
:10448C00484F535400436F6E74656E742D4C656EBB
:10449C0067746800504F5354000D0A0D0A00000059
:1044AC000000000000000000350C0A08510C0A083E
:1044BC000000000000000000650C0A08890C0A08C6
:1044CC00000000000000000027120A082D120A0844
:1044DC007D120A083B120A0829120A080000000083
:1044EC0000000000A1170A08EB170A08C3170A08F6
:1044FC00A3170A08CB170A08D3170A08DB170A08F0
:10450C00E3170A0800000000000000001D180A084C
:10451C00C9000A0895010A0825640025750075254F
:10452C0030347800626175640053657269616C00A7
:10453C0055534253657269616C31004A534F4E5367
:10454C00747265616D4C6F6748616E646C65720066
:10455C0061707000253031307520005D20002C20FA
:10456C000028293A2000205B00636F6465203D2001
:10457C000025690064657461696C73203D20006DD1
:10458C0000630066006C6E00666E00636F6465000D
:10459C0064657461696C000000000000000000009C
:1045AC00BF1C0A08E51C0A08A51C0A0803190A08FE
:1045BC00000000000000000061210A0879210A08AF
:1045CC0035290A08CD000A08000000000000000090
:1045DC008D210A08A1210A08DD2A0A08AD1C0A0847
:1045EC000000000000000000BD1C0A08F31C0A08B3
:1045FC0071280A08AF1C0A08000000000000000027
:10460C00BB1C0A08011D0A0889200A081D1D0A087E
:10461C000000000000000000512C0A085B2C0A0866
:10462C00652C0A086F2C0A08792C0A08852C0A08B4
:10463C00912C0A08992C0A08A12C0A08AD2C0A08FE
:10464C00B52C0A08BF2C0A08C92C0A0877697269AC
:10465C006E6700544350436C69656E7420736F63CE
:10466C006B65743D25780000000000000000000020
:10467C00A1310A08C9310A08EB350A08D7310A08F2
:10468C00A5310A0800000000000000000000000036
:10469C0000000000DD310A0811320A085D310A08F9
:1046AC0077310A08ED330A0873320A0845320A08D2
:1046BC009F310A080D330A08F1350A08A7320A0897
:1046CC0061340A080F350A08C7340A0887310A080A
:1046DC00D5340A0825320A0825592D256D2D256457
:1046EC005425483A254D3A2553257A006173637455
:1046FC00696D6500000000000000000071360A08BA
:10470C00D9360A08B5360A08452D0A0885360A082E
:10471C00A1360A0893360A08AF360A0873360A0817
:10472C0077360A0800000000000000007D370A08F8
:10473C00E3370A08BB370A08452D0A08AD370A08C3
:10474C007F370A088F370A08DD370A089F370A08AF
:10475C0079370A080000000000000000C3390A087D
:10476C00B9390A08AF390A0821390A08A3390A08E5
:10477C0097390A08912C0A08992C0A088B390A08CF
:10478C0083390A0879390A086F390A082B390A085B
:10479C0000537431395F53705F6D616B655F736883
:1047AC00617265645F74616700000000F8470A0875
:1047BC009D470A0858480A08CC470A087C480A084A
:1047CC004E31305F5F637878616269763131375F83
:1047DC005F636C6173735F747970655F696E666F2C
:1047EC004500000000000000C0470A08653D0A08AB
:1047FC00793D0A08113F0A08113F0A08E33D0A08EF
:10480C00253D0A08CB3D0A088D3D0A08593D0A088A
:10481C0058480A0828480A08C0470A084E31305F31
:10482C005F637878616269763132305F5F73695F9C
:10483C00636C6173735F747970655F696E666F45E5
:10484C0000000000000000001C480A080D3E0A0889
:10485C00213E0A08113F0A08113F0A08E33D0A08E5
:10486C00253D0A08E53E0A08713E0A08353E0A084D
:10487C00F8470A0884480A08537439747970655FDC
:10488C00696E666F00002020202020202020202828
:10489C0028282828202020202020202020202020EC
:1048AC002020202020208810101010101010101024
:1048BC001010101010100404040404040404040464
:1048CC0010101010101010414141414141010101E3
:1048DC0001010101010101010101010101010101BC
:1048EC0001101010101010424242424242020202C9
:1048FC00020202020202020202020202020202028C
:10490C000210101010200000000000000000000039
:10491C00000000000000000000000000000000008B
:10492C00000000000000000000000000000000007B
:10493C00000000000000000000000000000000006B
:10494C00000000000000000000000000000000005B
:10495C00000000000000000000000000000000004B
:10496C00000000000000000000000000000000003B
:10497C00000000000000000000000000000000002B
:10498C0000000000000000003D070A0825290A0865
:10499C00312D0A08752E0A0821310A085D360A08DD
:1049AC00CD390A08CD3C0A080000000000000000C8
:0449BC0000000000F7
:0449C00000000000F3
:1049C40064440A086B440A08000000000000000068
:1049D400E2200000F4450A080C460A08F8460A08D2
:1049E400240000200000000000000000000000007F
:1049F40000000000000000000000000000000000B3
:104A040000000000000000000000000000000000A2
:104A14000000000000000000000000000000000092
:104A24000000000000000000000000000000000082
:104A34000000000000000000000000000000000072
:044A4400000000006E
:104A4800FFFFFFFF00000102030405060708090A2B
:104A58000B0C0D0E0F101112131415161718191A26
:084A68001B1C1D1E1F2028006D
:044A7000785634122E
:04000005080A001CC9
:00000001FF
