:02000004080AE8
:1000000000000A08240D0A08000006000600050189
:080010000402350800000000A5
:04001800480B0A087F
:10001C0009480A4908B5884205D0094A824202D0EB
:10002C00121A00F049FD0748074A0021121A00F085
:10003C0051FD064808BD00BF00000020940C0A08C2
:10004C0068000020680000201C0500201C05002012
:10005C0070B500F0D1FC0025054E064CA41BA4087D
:10006C00A54200D170BD56F8043B98470135F7E71F
:10007C00680C0A08840C0A0800F011B808B500F0E6
:10008C000FF8BDE8084000F079BC00F017B9007813
:10009C00B0FA80F040097047012303707047704735
:1000AC007047000008B5024B1B685B68019308BDE4
:1000BC009C01060808B5024B1B685B69019308BDDF
:1000CC009C01060808B5024B1B689B69019308BD8F
:1000DC00C401060808B5024B1B685B6A019308BD96
:1000EC00C401060808B5024B1B689B6A019308BD46
:1000FC00C401060808B5024B1B68DB6A019308BDF6
:10010C00C401060808B5024B1B681B6B019308BDA4
:10011C00C401060808B5024B1B685B6B019308BD54
:10012C00C401060808B5024B1B681B6C019308BD83
:10013C00C401060808B5024B1B681B68019308BD77
:10014C00D801060808B5024B1B681B69019308BD52
:10015C00D801060808B5024B1B685B69019308BD02
:10016C00D801060808B5024B1B689B69019308BDB2
:10017C00D801060808B5024B1B68DB69019308BD62
:10018C00D801060808B5024B1B681B6A019308BD11
:10019C00D801060808B5024B1B689B6C019308BD7F
:1001AC00C001060808B5024B1B685B68019308BDCB
:1001BC00A401060808B5034B1B68D3F890300193D3
:1001CC0008BD0000A401060808B5034B1B68D3F852
:1001DC009C30019308BD0000A401060808B5024B31
:1001EC001B68DB6B019308BDCC01060808B5024BFC
:1001FC001B685B68019308BDC801060808B5024B73
:10020C001B689B68019308BDC801060808B5024B22
:10021C001B68DB68019308BDC801060808B5024BD2
:10022C001B681B69019308BDC801060808B5024B81
:10023C001B685B69019308BDC801060808B5024B31
:10024C001B689B69019308BDC801060808B5024BE1
:10025C001B68DB69019308BDC801060808B5024B91
:10026C001B681B6A019308BDC801060808B5024B40
:10027C001B681B6B019308BDC801060808B5024B2F
:10028C001B685B6B019308BDC801060808B5024BDF
:10029C001B681B6C019308BDC801060808B5024B0E
:1002AC001B685B6C019308BDC801060808B5024BBE
:1002BC001B681B68019308BDA001060808B5024B1A
:1002CC001B685B68019308BDA001060808B5024BCA
:1002DC001B685B6C019308BDA001060810B5836810
:1002EC00044613B1032201469847204610BD7047BF
:1002FC0010B50446182100F0CEFB204610BDF8B511
:10030C000E46002400F10807051D17F8011D0A22EE
:10031C00304600F0EEF8AF42044401D12046F8BD5F
:10032C00002CF2D02E21304600F0E0F80444ECE72B
:10033C0010B50446044B1122002140F8043B00F098
:10034C00C9FB204610BD00BF640B0A080346074AD0
:10035C0010B543F8042B01F1100251F8044B9142F3
:10036C0043F8044BF9D10A781A7010BD640B0A08D3
:10037C00024AC0E90021042202757047640B0A0886
:10038C0010B59DF8084044EA0324042344EA0244CF
:10039C0044EA01644460037510BD000037B5044D98
:1003AC0005609DF818500095FFF7EAFF03B030BDCB
:1003BC00640B0A08014B024A1A6070476C0000205B
:1003CC00700B0A08002340681A46FFF70FBF002283
:1003DC0002214068FFF71ABF002240681146FFF760
:1003EC000DBF002240681146FFF718BF002340687C
:1003FC001A461946FFF71ABF002340681A461946D9
:10040C00FFF71CBF00214068FFF740BF0021406888
:10041C00FFF744BF0022406881F00101FFF716BFCF
:10042C0000224068FFF722BF002240681146FFF708
:10043C0025BF002240681146FFF710BF70B5154666
:10044C008EB0044608A8FFF773FF1122002103A801
:10045C0000F040FB0026284600F068FB0A4B009693
:10046C0081B25B68284603AAFFF794FE30B131468F
:10047C002046FFF77DFF20460EB070BD204603A935
:10048C00FFF764FFF7E700BFF0040020024B034ABC
:10049C001A6000225A607047700000207C0B0A081A
:1004AC00F8B506460D4600248F18BD420CD03368B3
:1004BC0030469B6815F8011B9847031E01DB1C4452
:1004CC00F3E7002C08BF1C462046F8BD70B5054666
:1004DC000C46084649B100F029FB2B680246214620
:1004EC002846BDE87040DB68184770BD03689B6800
:1004FC0018470023012A98BF0A2230B58BB00C464E
:10050C008DF8243009A92546B4FBF2F404FB1253F0
:10051C00DBB2092B94BF30333733DBB2AA4201F87C
:10052C00013DF0D9FFF7D2FF0BB030BD10B504463A
:10053C00FFF7D4FE204610BD00230348034A0449AC
:10054C00836000F0A3BA00BF780000206800002090
:10055C0039050A0810B50446006818B1FFF7AEFE5D
:10056C000023236010BD10B50446FFF7F3FF2046AF
:10057C0010BD00000222002010B5084B084C1A6078
:10058C00084B2060A080A071A360FFF70BFE2046F3
:10059C00BDE81040044A054900F078BA94000020E8
:1005AC00880000200000FFFF6800002073050A0887
:1005BC00024B1A68024B1A60704700BF0000002003
:1005CC009800002070474174704708B5007CFFF715
:1005DC00A9FD20EAE07008BD08B5007CFFF782FD9C
:1005EC0020EAE07008BD08B5007CFFF78BFD40EAFF
:1005FC00E07008BD08B5007CFFF77CFD40EAE070B8
:10060C0008BD007CFFF786BD70B5467C04460D46E0
:10061C002EB12946207CBDE87040FFF75BBD007C05
:10062C00FFF780FD0028F4DC304670BD10B50446A1
:10063C00142100F030FA204610BD00004FF0000CE1
:10064C0010B50446084611464FF47A72C4E901C24B
:10065C00044A20742260012262741A46FFF732FDAC
:10066C00204610BDD40B0A0838B50D4D2978BFF3C0
:10067C005B8F11F0010411D12846FFF708FD68B11A
:10068C002146084A084B0948FFF7D8FF2846FFF7D0
:10069C0003FD074A0749054800F0F8F9034838BD3F
:1006AC009C000020A000002024010020A8010020B4
:1006BC0068000020D1050A0841747047704708B5DE
:1006CC000021007CFFF74EFD40EAE07008BD08B544
:1006DC000121007CFFF746FD40EAE07008BD08B53B
:1006EC00007CFFF737FD20EAE07008BD08B5007C00
:1006FC00FFF728FD20EAE07008BD38B50446007C01
:10070C000D46FFF727FD002801DC607C28B1294647
:10071C00207CFFF72FFD20EAE07038BD007CFFF74E
:10072C0031BD10B50446142100F0B5F9204610BDBA
:10073C0010B54FF47A73044608460021C4E901133E
:10074C00044B20742360012311466374FFF7F2FC01
:10075C00204610BD040C0A0810B5044614220021D2
:10076C0000F0B8F9054B20466360054BE36040F29E
:10077C00011323818123238210BD00BFEC010020D3
:10078C00ED02002030B50F4D87B001A8FFF7E4FF54
:10079C002978BFF35B8F11F0010410D12846FFF7C5
:1007AC0076FC60B1214601AA0748FFF7C1FF284635
:1007BC00FFF772FC054A0649034800F067F9024846
:1007CC0007B030BDBC010020C4010020680000202F
:1007DC00C9060A0810B504461422002100F07AF963
:1007EC00054B20466360054BE36040F20113238107
:1007FC008123238210BD00BF6E0300206F040020F4
:10080C0010B50F4C86B001A8FFF7E4FF2378BFF3B7
:10081C005B8FDB0710D42046FFF739FC60B1012158
:10082C0001AA0848FFF784FF2046FFF735FC064A6B
:10083C000649044800F02AF9024806B010BD00BF72
:10084C00C0010020D801002068000020C9060A0859
:10085C00002240681146FFF7E1BCF0B5154689B09F
:10086C0011220E460446002103A800F033F9284655
:10087C0000F05CF9002781B273682846009703AA40
:10088C00FFF788FC30B139462046FFF771FD204652
:10089C0009B0F0BD204603A9FFF758FDF7E7002289
:1008AC0040681146FFF7DABC002240681146FFF79A
:1008BC00E5BC00224068FFF7D9BC0022406881F0FB
:1008CC000101FFF7C3BC002340681A461946FFF725
:1008DC00B5BC002340681A461946FFF7A7BC002296
:1008EC0040681146FFF78ABC002202214068FFF7DE
:1008FC008DBC002340681A46FFF778BC0422024BDB
:10090C005A60024A1A607047F0040020340C0A083E
:10091C00014B1860704700BF0400002008B5134B52
:10092C0043B1FFF72FFF03681B699847002801DDCF
:10093C00AFF300800E4B43B1FFF796FE03681B69C3
:10094C009847002801DDAFF300800A4B0BB1AFF3E1
:10095C000080094B43B1FFF753FF03681B699847AD
:10096C00002801DDAFF3008008BD00BF00000000CF
:10097C0000000000000000000000000008B5FFF7B8
:10098C00CDFFFFF797FB014B186008BD0005002059
:10099C000248034A0349121A00F08EB80040024084
:1009AC0004400240900C0A08002307B51A466FF069
:1009BC0077010093FFF708FC03B05DF804FB00001F
:1009CC0007B543880A2B08D0502B0BD1094B1B6859
:1009DC004BB103B05DF804EB1847FFF7E5FF03B02C
:1009EC005DF804FB00231A466FF077010093FFF7C4
:1009FC00EBFBF4E7FC04002038B5124C0021124844
:100A0C00FFF764FC114D2368AB420CBF012200229E
:100A1C000F4B1A7002D0FFF7BBFF2560FFF742FBAC
:100A2C00044600F05FF80B4B13B12046AFF3008087
:100A3C0000210848FFF7D2FBBDE8384000210648EA
:100A4C00FFF7B8BB004002401D090A081E1C279A7C
:100A5C00F804002000000000CD090A08002313B59B
:100A6C00074C1A46194620460093FFF797FC204680
:100A7C00044A054902B0BDE8104000F007B800BFB9
:100A8C000405002068000020FB020A080B46014602
:100A9C00184600F003B8FFF7F8BA000010B504468A
:100AAC000448134620B10A4602202146AFF30080C9
:100ABC0010BD00BF000000000A44914200F1FF335A
:100ACC0000D1704710B511F8014B914203F8014F5A
:100ADC00F9D110BD03460244934200D1704703F88C
:100AEC00011BF9E738B50D4B04461D68AB6B7BB9A0
:100AFC001820FFF7DBFB0A4A0A4BA863C0E9002366
:100B0C00094B012283600B2383810023C0E904235A
:100B1C000022AB6B1C615A6138BD00BF0400002081
:100B2C000E33CDAB34126DE6ECDE0500034613F844
:100B3C00012B002AFBD1181A013870471D000A0836
:100B4C005D000A0885000A0889000A0800000000F8
:100B5C0000000000000000000B030A08FB020A085A
:100B6C00FD020A0861707000000000000000000027
:100B7C00D1030A08DB030A08E5030A08EF030A0895
:100B8C00F9030A0805040A0811040A0819040A08DA
:100B9C0021040A082D040A0835040A083F040A082F
:100BAC0049040A0825592D256D2D25645425483AEC
:100BBC00254D3A2553257A0061736374696D650080
:100BCC000000000000000000D1050A0839060A08E0
:100BDC0015060A08AD040A08E5050A0801060A0804
:100BEC00F3050A080F060A08D3050A08D7050A08F0
:100BFC000000000000000000C9060A082F070A08C0
:100C0C0007070A08AD040A08F9060A08CB060A0801
:100C1C00DB060A0829070A08EB060A08C5060A08B3
:100C2C000000000000000000FF080A08F5080A0890
:100C3C00EB080A085D080A08DF080A08D3080A0846
:100C4C0011040A0819040A08C7080A08BF080A0888
:100C5C00B5080A08AB080A0867080A08C1030A089D
:100C6C0099040A0845050A0881050A08BD050A0801
:100C7C0009090A08690A0A080000000000000000BF
:040C8C000000000064
:040C90000000000060
:100C9400C40B0A0808000020000000000000000047
:100CA4000000000000000000000000000000000040
:100CB4000000000000000000000000000000000030
:100CC4000000000000000000000000000000000020
:100CD4000000000000000000000000000000000010
:100CE4000000000000000000000000000000000000
:080CF4000000000000000000F8
:100CFC00FFFFFFFF00000102030405060708090AB5
:100D0C000B0C0D0E0F101112131415161718191AAF
:080D1C001B1C1D1E1F202800F6
:040D240078563412B7
:04000005080A001CC9
:00000001FF
