:02000004080AE8
:1000000000000A085C4D0A08000006000600050111
:080010000402350800000000A5
:04001800D4440A08BA
:10001C0009480A4908B5884205D0094A824202D0EB
:10002C00121A04F0EFF80748074A0021121A04F0DC
:10003C0011F9064808BD00BF00000020B44C0A08A6
:10004C008000002080000020401200204012002080
:10005C0070B503F085FE0025054E064CA41BA408C4
:10006C00A54200D170BD56F8043B98470135F7E71F
:10007C00904C0A08B04C0A0800F09CB808B500F087
:10008C00A7FABDE8084003F02DBE01F0ADB901F0B0
:10009C00ABB901F0B1B9000000210C2008B5024A3F
:1000AC0001F0C6F8FEE700BF790F0A080078B0FA35
:1000BC0080F0400970470123037070477047704708
:1000CC00006A0368DB68184710B50446043003F077
:1000DC001EF8204610BD10B504463C3003F017F84E
:1000EC0004F1280003F013F8204603F010F8204622
:1000FC0010BD000010B50446024B036000F0E2FE98
:10010C00204610BD58470A0810B50446FFF7F2FF09
:10011C00204640F24C7103F042FF204610BD000017
:10012C0013B50446044B1B788DF800303C2301F0CA
:10013C00F1FA204602B010BDE400002010B50446D0
:10014C00094B036002F030F8214602F041FA03F04B
:10015C00CDFC03F0B1FC2046044B40F8043B02F00C
:10016C0025F9204610BD00BF40470A0828470A0859
:10017C0010B50446FFF7E2FF2046242103F00FFFE1
:10018C00204610BD13B50446054B00221B788DF894
:10019C0000303C2301F0BEFA204602B010BD00BF77
:1001AC00E400002010B50446182103F0F8FE2046A8
:1001BC0010BD000070B5104E104D06F114040FCD9B
:1001CC000FC42B6823705023B36303F08FFC4FF4E0
:1001DC00165103F06DFC0121062003F041FE0021B5
:1001EC00062003F04EFEBDE87040002302220449B5
:1001FC00044801F079B800BFD00C00202405002081
:10020C00E8000020E8440A0830B587B005461149DB
:10021C0002A802F0C6FF104902A803F04BF80F49E0
:10022C0003F048F80E4C014604F1280002F0F4FFEC
:10023C0002A802F06CFF294604F13C0002F0ECFF2E
:10024C00084B21460093084A084B094800F0FCFC77
:10025C0007B030BDF4440A08A4000020840000203C
:10026C00D00C0020FA440A081C0D002000000020CD
:10027C00F000002030B50546052485B029466846B7
:10028C0002F0D9FF6846FFF7BFFF684602F03FFF58
:10029C00C82001F0E1F8013CF0D105B030BD38B513
:1002AC00046805467CB16368013B63605BB92368F5
:1002BC0020469B689847A368013BA3601BB9236841
:1002CC002046DB689847284638BD000010B5044628
:1002DC00034B40F8183BFFF7E2FF204610BD00BF70
:1002EC009C490A0870B51426D0E90053044606FB55
:1002FC000356AE4204D0284602F009FF1435F8E745
:10030C00206801F079F8204670BDF8B505460C461A
:10031C0016464AB90368C9B29B68984707462846EF
:10032C0002F06DFE3844F8BD00290CDA0A2A0AD115
:10033C002D2102F061FE074661422846F2B202F01E
:10034C0074FE0744EBE721460027F6E738B505466F
:10035C0042B903689B6898470446284602F04FFE52
:10036C00204438BDD2B202F060FEF5E72DE9F04F23
:10037C008DB0804908A802F014FF7F4908A802F04C
:10038C0099FF7E4902F096FF7D4D014605F128004C
:10039C0002F042FF08A802F0BAFE7A4C7A4B2246D1
:1003AC002946009379487A4B00F04EFCDFF818820E
:1003BC00616804A802F0F5FE03F098FB754902F0A1
:1003CC002AFE03F093FB0A2298F80010FFF7BEFFF9
:1003DC00714D03F08BFB049902F01DFE03F086FBBC
:1003EC0002F00DFE2B686D4F01332B606C4E03F049
:1003FC007DFB394602F00FFE03F078FB0A222968D8
:10040C00FFF783FF03F072FB314602F004FE6549EF
:10041C0008A802F0C6FE08A904A802F08CFF044646
:10042C0008A804F10509093402F071FE4A4604A932
:10043C00234608A802F082FF08A802F0A8FF5A4B36
:10044C00DFF888A1186008A802F061FE23464A462E
:10045C0004A908A802F072FF089A544902A8FFF7F1
:10046C005FFE03A8FFF71BFF08A802F050FE23460F
:10047C004F4C4A4604A908A802F060FF08A9204680
:10048C0002F0E4FE08A802F042FE2268494908A8DE
:10049C00FFF746FE09A8FFF702FF514608A802F035
:1004AC0080FE08A904A802F046FF044608A804F13F
:1004BC000B0904F1100B02F02AFE5B464A4604A914
:1004CC0008A802F03BFF08A93B4802F0BFFE08A8B1
:1004DC0002F01DFE4A465B4604A908A802F02EFF56
:1004EC00364908A802F006FF003818BF0120344B2B
:1004FC00187008A802F00BFE04F10F034A4604A979
:10050C0008A802F01BFF089A514602A8FFF708FE44
:10051C0003A8FFF7C4FE08A802F0F9FD4FF47A70A7
:10052C0000F09AFF012388F8003003F0DFFA254928
:10053C0002F071FD03F0DAFA0A2298F80010FFF7C6
:10054C0005FF2B6801332B6003F0D0FA394602F01B
:10055C0062FD03F0CBFA0A222968FFF7D6FE03F0FE
:10056C00C5FA314602F057FD04A802F0D0FD0DB0DB
:10057C00BDE8F08FF4440A08A4000020B400002069
:10058C00D00C00201C0D0020FE440A08F0000020B6
:10059C000000002002450A08EC0000200C450A0867
:1005AC0012450A089A470A080C05002025450A0836
:1005BC001005002029450A08C00C002038450A08FF
:1005CC00BC0C00203D450A08480500202E450A08B1
:1005DC002DE9F04F0A2095B003F06CFC0023964EE9
:1005EC00964FDFF8BC823B703060FFF7BFFE03F024
:1005FC007DFA934902F00FFD03F078FA0A22D8F83D
:10060C000010FFF782FE8F4C03F070FA02F0F7FC3B
:10061C0003F06CFA0A223978FFF798FE2368B1468A
:10062C000133236003F062FA874902F0F4FC03F013
:10063C005DFA0A222168FFF768FE03F057FA834936
:10064C0002F0E9FC3368112B7DDC42F2E20A8049AE
:10065C0010A8FFF797FD11A8FFF721FE7D4B7E49EF
:10066C001A68DFF840B210A8FFF75AFD11A8FFF77F
:10067C0016FE7A4EFFF77AFE794D9BF8001068460D
:10068C00002914BF3146294602F08BFDD8F8001022
:10069C0004A851450CBF3146294602F082FD714930
:1006AC00714802F027FE002814BF3146294608A8DD
:1006BC0002F077FD694610A802F0BDFD6B4910A849
:1006CC0002F004FE04A902F0F5FD684902F0FEFDFB
:1006DC0008A902F0EFFD664902680CA8FFF720FD9F
:1006EC000DA8FFF7DCFD10A802F011FD9BF80030FF
:1006FC0003B3D8F8003053451CD05A495A4802F07D
:10070C00F9FDB8B9524910A8FFF73CFD11A8FFF745
:10071C00C6FD58490CA802F044FD0CA910A802F023
:10072C008AFD10A8FFF7A6FD10A802F0F0FC0CA89B
:10073C0002F0EDFC08A802F0EAFC04A802F0E7FCC9
:10074C00684602F0E4FCD9F80030A3F11E02132A2B
:10075C004ED8494910A8FFF715FD11A8FFF79FFDCA
:10076C004549464802F07AFD45490CA802F019FDAE
:10077C000CA910A802F05FFD10A8FFF77BFD10A8D4
:10078C0002F0C5FC0CA802F0C2FC03F0AFF92F4933
:10079C0002F041FC03F0AAF93A4902F03CFC03F0E8
:1007AC00A5F90A223978FFF7D1FD236801332360BC
:1007BC0003F09CF9244902F02EFC03F097F90A226D
:1007CC002168FFF7A2FD03F091F9204902F023FC08
:1007DC004FF4FA7000F040FE2B4B1A68032AC4BF8A
:1007EC0000221A601A6801321A6015B0BDE8F08F49
:1007FC00A3F112020B2A0FD8244910A8FFF7C2FC50
:10080C0011A8FFF74CFD22490CA802F0CAFC1F49A5
:10081C001A4802F023FDABE7312BB6DD1D4910A8B9
:10082C00FFF7B0FC11A8FFF73AFD1B490CA802F02A
:10083C00B8FC1A49ECE700BFE8000020480500208E
:10084C004D450A08EC0000200C450A0812450A0820
:10085C0056450A08C00C002066450A0838450A08A7
:10086C0047450A0872450A081005002067480A081F
:10087C0077450A0899450A08D8450A083805002022
:10088C00DD450A08A9460A08300D00201C460A0856
:10089C0023460A0862460A0866460A08A5460A085C
:1008AC000C050020BC0C00208842F8B504460D460F
:1008BC00164616D9904215D2A2F11406751AA1F15A
:1008CC0014072C44B7421CD02CB13146204602F000
:1008DC0098FC337C2374304602F019FC143E143C13
:1008EC00F0E70ED0B5420CD02CB12946204602F0D0
:1008FC0088FC2B7C2374284602F009FC1435143434
:10090C00F0E7F8BD00232DE9F041C0E90033836026
:10091C004F6804469F420E4624DD4FF0140808FB36
:10092C0007F000F061FD0546E0B1D4E9001208FBC8
:10093C000212FFF7B9FF206800F05EFD2560A7608A
:10094C00D6E9007308FB0378B84509D03946284628
:10095C0002F071FC3B7C143505F8043C1437F3E7CA
:10096C00736863602046BDE8F0810000F0B5002498
:10097C00774B8FB01C702146012000F089FCCDE92B
:10098C000244049403F0B2F8724D04462E4602A9B8
:10099C0005A8FFF7B7FF05A908A8FFF7B3FF6E4B33
:1009AC0008A946F8043B0BA8FFF7ACFF0BAA1E21C5
:1009BC00304601F05FFF0BA8FFF794FC08A8FFF787
:1009CC0091FC664B2C622B6005A8FFF78BFC644BEB
:1009DC00644C2B6003F08AF84FF4165103F068F85E
:1009EC0001F0E2FB294601F0D8FE5F4E02A8FFF7AA
:1009FC0079FC224628465D495D4D03F0CBFA304622
:100A0C005C4902F0CEFB5C4F30465C4E22462946D8
:100A1C0003F0C0FA3946304602F0C3FB3046584E5C
:100A2C002246294603F0B6FA3946304602F0B9FBA5
:100A3C003046544E2246294603F0ACFA3046524911
:100A4C0002F0AFFB3046514E2246294603F0A2FA83
:100A5C0030464F4902F0A5FB30464E4E2246294601
:100A6C0003F098FA30464C4902F09BFB30464B4E53
:100A7C002246294603F08EFA304600F0AFF82246A3
:100A8C003046474903F086FA9D23464E0093A82230
:100A9C000123C021304601F041F8434F3046434E0C
:100AAC002246434903F076FA3146384602F079FB88
:100ABC0007F1100000F0FCFF314607F1280002F0AE
:100ACC0070FB314607F13C0002F06BFB3846394FA6
:100ADC002246394903F05EFA3146381D02F061FBBB
:100AEC0022463846354903F055FA3223344F0093E9
:100AFC0007F12C0107F22C434FF48062384600F0CA
:100B0C00FDF9304B38463B602F4F22462F4903F0FE
:100B1C0041FA38462E4902F044FB38462D4F224606
:100B2C00294603F037FA3146384602F03AFB38468C
:100B3C00294F2246294603F02DFA3146384602F059
:100B4C0030FB22462946384603F024FA0FB0F0BD9C
:100B5C00E40000204C05002028470A08C0480A0879
:100B6C0040470A0880000020A400002049010A0820
:100B7C001B310A08BB460A08E4460A08B4000020E8
:100B8C00C400002084000020EE460A0894000020D7
:100B9C0066460A08D4000020FF460A08F000002030
:100BAC00D9020A0820050020D00C0020A5470A080D
:100BBC00C9000A081C0D0020E3000A08D5000A0829
:100BCC007005002058470A083805002001010A0862
:100BDC001B470A0810050020C00C002010B5044665
:100BEC0002F03AFE204610BD38B50446154602F018
:100BFC00FFF92046044902F0FBF929462046BDE8DE
:100C0C00384002F008BA00BF6B480A0838B50546F0
:100C1C00144602F0EDF928460A4902F0E9F9002CD5
:100C2C000DDA2D21284602F0E7F9614228460A2206
:100C3C0002F0FBF92846BDE8384002F0E0B9214645
:100C4C00F4E700BF6B480A082DE9F04F0E469846B2
:100C5C004FF0FF3391B01360044600213046174625
:100C6C00DDF8689002F046FBD6F838E0034698B9F8
:100C7C00BEF1000F14BF724650222046316892B26A
:100C8C0002F002FE051E18BF0125C5B9204602F070
:100C9C0033FD11B0BDE8F08F744B0BAD06F1140CA5
:100CAC000A93BCE80F000FC5DCF8003020462B700F
:100CBC001FFA8EF200230AA902F074FCE2E74946FF
:100CCC00204602F095F96A49204602F091F9B16A82
:100CDC00204602F08DF96749204602F089F920463A
:100CEC006549664AFFF780FF0021304602F002FB9F
:100CFC0020B9204632686249FFF776FF06F13C0ABC
:100D0C000021504602F0F6FA28B9726C20465D4973
:100D1C00FFF77CFF06E048465B4903F0DEFA02462B
:100D2C000028F3D0B8F1000F0ED0D8F8001059B14C
:100D3C00D8F80420204622B1FFF756FF08F1080826
:100D4C00F3E702F068F9F9E7204602F058F920467B
:100D5C0002F071FB0021504602F0CCFA18B9204683
:100D6C00F16B02F058F904F11C0A4FF48062002177
:100D7C00504603F06FFA4FF0000800F0FFF84646BB
:100D8C00019041F2883B00F0F9F8204602F07AFC21
:100D9C00D8B1204602F0B9FB814600F0EFF840F2E2
:100DAC00FE339E42019004D8A31983F81C9001369F
:100DBC00EBE740F2FF339E42F9D10023204684F842
:100DCC001B3402F099FCA846F1E7A319187700F040
:100DDC00D5F8019BA0EB0309B8F1000F04D1D9455C
:100DEC0002D8C82000F038FB204602F0DCFC20B111
:100DFC00D94502D8B8F1000FC7D0204602F07CFCD0
:100E0C00514602A802F0CDF90C23092202A906A82A
:100E1C0002F094FA1D490AA802F0C3F90AA902A823
:100E2C0002F089FA04460AA802F071F9631C06D193
:100E3C0006A802F06CF902A802F069F929E73D1D39
:100E4C001349284602F00AFA221D02A90AA802F048
:100E5C0097FA0AA9284602F029FA0AA802F057F9CB
:100E6C00069803F0B9F93860E2E700BF14480A08A5
:100E7C0067480A086B470A087D470A0877470A083B
:100E8C0088470A088D470A089C470A08A1470A08A0
:100E9C00A5470A0810B5054B04460360037C1BB933
:100EAC00406808B100F0A8FA204610BDB0470A0807
:100EBC0010B50446FFF7EEFF2046142103F06FF83F
:100ECC00204610BD10B5074B04460360037C1BB9CC
:100EDC00406908B100F090FA2046FFF7DBFF20468E
:100EEC0010BD00BFC0470A0810B50446FFF7EAFF63
:100EFC0020462C2103F053F8204610BDC0E9011206
:100F0C000022C260012210B502744361024A029BA6
:100F1C000260C36110BD00BFC0470A0808B5024B90
:100F2C001B685B6C019308BDD001060808B5024B29
:100F3C001B689B6C019308BDD001060808B5024BD9
:100F4C001B68DB6C019308BDD001060808B5024B89
:100F5C001B685B6D019308BDD001060808B5024BF8
:100F6C001B685B68019308BD9C01060808B5024B21
:100F7C001B68DB68019308BD9C01060808B5024B91
:100F8C001B685B69019308BD9C01060808B5024B00
:100F9C001B685B68019308BDB001060808B5024BDD
:100FAC001B689B68019308BDB001060808B5024B8D
:100FBC001B68DB68019308BDB001060808B5024B3D
:100FCC001B681B69019308BDB001060808B5024BEC
:100FDC001B681B6B019308BDB001060808B5024BDA
:100FEC001B681B6E019308BDAC01060808B5024BCB
:100FFC001B685B6E019308BDAC01060808B5024B7B
:10100C001B689B6E019308BDAC01060808B5024B2A
:10101C001B68DB6E019308BDAC01060808B5024BDA
:10102C001B681B6F019308BDAC01060808B5024B89
:10103C001B685B6F019308BDAC01060808B5034B38
:10104C001B68D3F88030019308BD0000AC01060882
:10105C0008B5024B1B681B68019308BDBC01060850
:10106C0008B5024B1B685B68019308BDBC01060800
:10107C0008B5024B1B689B68019308BDBC010608B0
:10108C0008B5024B1B68DB68019308BDBC01060860
:10109C0008B5024B1B681B69019308BDBC0106080F
:1010AC0008B5024B1B681B6A019308BDBC010608FE
:1010BC0008B5024B1B681B6B019308BDBC010608ED
:1010CC0008B5024B1B685B6C019308BDBC0106089C
:1010DC0008B5024B1B68DB69019308BDB401060817
:1010EC0008B5024B1B681B6A019308BDB4010608C6
:1010FC0008B5024B1B689B69019308BDC401060827
:10110C0008B5024B1B681B6A019308BDC401060895
:10111C0008B5024B1B685B6A019308BDC401060845
:10112C0008B5024B1B689B6A019308BDC4010608F5
:10113C0008B5024B1B68DB6A019308BDC4010608A5
:10114C0008B5024B1B681B6B019308BDC401060854
:10115C0008B5024B1B685B6B019308BDC401060804
:10116C0008B5024B1B689B6B019308BDC4010608B4
:10117C0008B5024B1B681B6C019308BDC401060823
:10118C0008B5024B1B68DB6C019308BDC401060853
:10119C0008B5024B1B681B68019308BDD8010608F3
:1011AC0008B5024B1B685B68019308BDD8010608A3
:1011BC0008B5024B1B689B68019308BDD801060853
:1011CC0008B5024B1B681B69019308BDD8010608C2
:1011DC0008B5024B1B685B69019308BDD801060872
:1011EC0008B5024B1B689B69019308BDD801060822
:1011FC0008B5024B1B68DB69019308BDD8010608D2
:10120C0008B5024B1B681B6A019308BDD801060880
:10121C0008B5024B1B685B6C019308BDC001060846
:10122C0008B5024B1B689B6C019308BDC0010608F6
:10123C0008B5024B1B685B6B019308BDA801020843
:10124C0008B5024B1B681B6D019308BDA801020871
:10125C0008B5024B1B68DB6E019308BDA8010208A0
:10126C0008B5024B1B681B6F019308BDA80102084F
:10127C0008B5024B1B685B68019308BDA401060806
:10128C0008B5024B1B685B69019308BDA4010608F5
:10129C0008B5024B1B68DB6A019308BDA401060864
:1012AC0008B5024B1B68DB6C019308BDA401060852
:1012BC0008B5024B1B685B6D019308BDA4010608C1
:1012CC0008B5034B1B68D3F89030019308BD0000A0
:1012DC00A401060808B5034B1B68D3F89C30019396
:1012EC0008BD0000A401060808B5024B1B681B686A
:1012FC00019308BDCC01060808B5024B1B685B695D
:10130C00019308BDCC01060808B5024B1B681B6A8B
:10131C00019308BDCC01060808B5024B1B68DB6BBA
:10132C00019308BDCC01060808B5024B1B685B682D
:10133C00019308BDC801060808B5024B1B689B68E1
:10134C00019308BDC801060808B5024B1B68DB6891
:10135C00019308BDC801060808B5024B1B681B6940
:10136C00019308BDC801060808B5024B1B685B69F0
:10137C00019308BDC801060808B5024B1B689B69A0
:10138C00019308BDC801060808B5024B1B68DB6950
:10139C00019308BDC801060808B5024B1B681B6AFF
:1013AC00019308BDC801060808B5024B1B681B6BEE
:1013BC00019308BDC801060808B5024B1B685B6B9E
:1013CC00019308BDC801060808B5024B1B681B6CCD
:1013DC00019308BDC801060808B5024B1B685B6C7D
:1013EC00019308BDC801060808B5024B1B681B68B1
:1013FC00019308BDA001060808B5024B1B685B6889
:10140C00019308BDA001060808B5024B1B689B6838
:10141C00019308BDA001060808B5024B1B685B6A66
:10142C00019308BDA001060808B5024B1B68DB6AD6
:10143C00019308BDA001060808B5024B1B681B6B85
:10144C00019308BDA001060808B5024B1B685B6C34
:10145C00019308BDA00106080021FFF711BF10B5CC
:10146C00836804460BB902F0A0FDC3689847A368D3
:10147C001BB103222146204698472046BDE8104068
:10148C00102102F08CBD70470020704710B5044647
:10149C00102102F084FD204610BD08B5FFF7F6FFC1
:1014AC0008BD10B58368044613B103220146984762
:1014BC00204610BD002230B54FF69C74026084802B
:1014CC008D888C800C68858004600A6030BD10B5F6
:1014DC0004460068FFF790FF204610BD38B5C4687D
:1014EC00F4B12378022B03D104F10C00FFF7EFFFCA
:1014FC00656835B12846FFF7D4FF1021284602F065
:10150C004EFDA56835B12846FFF7CBFF10212846C4
:10151C0002F045FD2046BDE83840142102F03FBDE5
:10152C0038BD0B68036013B15A6801325A607047BA
:10153C0073B50E46044656F8043B0D4601A83146D9
:10154C000093FFF7EEFF009B019A2360002362607B
:10155C0001A801930093FEF7A2FE3046FEF79FFE12
:10156C002846082102F01BFD204602B070BD13B5C1
:10157C006C460B46024603C884E8030093E803005C
:10158C0082E8030094E8030083E8030002B010BD76
:10159C00826810B50AB902F008FDC368BDE81040B6
:1015AC00184708B5006800F11001FFF7F1FF08BDFE
:1015BC00826810B50AB902F0F8FCC368BDE81040A7
:1015CC00184708B5006800F11001FFF7F1FF08BDDE
:1015DC0038B500230446036010200D46FEF755FD78
:1015EC0028B10123C0E90133024BC56003602060C0
:1015FC00204638BDD0470A0838B5002383608B6875
:10160C0004460D462BB102229847EB68E360AB68A9
:10161C00A360204638BD0000F0B589B00468684668
:10162C00FFF748FF4FF00203D4E84F2F002A03D1F5
:10163C00C4E8413F0029F7D125D104F10C056946D6
:10164C002846FFF737FF0123BFF35B8F6370002041
:10165C00BFF35B8F04F1080353E8006F43E800020B
:10166C00002AF9D1BFF35B8F6EB1FFF719FE78B189
:10167C0029463046FFF78CFF3046FFF712FF10214A
:10168C00304602F08CFC6846FFF721FF09B0F0BD34
:10169C00314602A8FFF7B0FFE068B4F9105008B16A
:1016AC0002F02EFE06901020ADF81C50FEF7EDFC5B
:1016BC000546E8B1002787601820FEF7E6FC0446D3
:1016CC0088B10146876002A8FFF751FF049BA2680E
:1016DC00A360059B0492E26806A9E36004F1100084
:1016EC000592FFF7E7FE084B2C60EB60074BAB60F5
:1016FC0006A8FFF7ECFE02A8FFF7D3FE002229464E
:10170C000348FFF7D5FDB7E7AF150A0845180A08D7
:10171C006B140A082DE9F0478AB005460C461746AB
:10172C0098469DF84890FFF7E7FD07AE824638BB18
:10173C004FF62E73059005A93046ADF81830FFF71B
:10174C00B9FE1420FEF7A1FC044648B10223037035
:10175C000123C0E901AA437031460C30FFF7AAFE01
:10176C002846214640F8044BFFF732FF3046FFF77E
:10177C00AEFE05A8FFF7ABFE28460AB0BDE8F08721
:10178C000C234FF0000A1420CDE908AA0793FEF7AA
:10179C007CFC014628B1C0E901AA80F800A080F8C1
:1017AC0001A004A80391FFF713FF224B0820089314
:1017BC00FEF76BFC824628B1039B04A940F8043B5E
:1017CC00FFF7AFFE42463946204600965FFA89F392
:1017DC00CDF824A0FFF798FDB8B9039B5B7803F014
:1017EC00FF0293B94FF69C7305A903A80592ADF8B7
:1017FC001830FFF711FF05A8FFF769FE05A8099936
:10180C00FFF796FE06A8FEF74AFD039B04A906A85F
:10181C000593FFF786FE059B069A2B6000236A60F2
:10182C0006A806930593FEF73AFD04A8FEF737FDCC
:10183C00A2E700BF09190A08022AF8B5054607D025
:10184C00032A18D0012A01D10B6803600020F8BDCF
:10185C0018200E68FEF719FC044650B13146FFF70C
:10186C00CBFE3069B6F9147008B102F049FD206165
:10187C00A7822C60EAE70468002CE7D004F1100082
:10188C00FFF725FE2046FFF70CFE1821204602F03C
:10189C0086FBDBE738B5002383608B6804460D4676
:1018AC002BB102229847EB68E360AB68A36020463B
:1018BC0038BD022A70B5044607D0032A12D0012A7B
:1018CC0001D10B680360002070BD14200E68FEF778
:1018DC00DCFB054620B13146FFF7DCFF337C2B7473
:1018EC002560F0E70468002CEDD02046FFF7D9FD09
:1018FC001421204602F053FBE5E70000F0B5044646
:10190C0089B00D4601A81146FFF712FEA4B124B20E
:10191C001DB1284602F0F4FC054601A803A9039565
:10192C00ADF81040FFF778FE03A8FFF7D0FD02A832
:10193C00FEF7B5FC09B0F0BD0123019DD5E84F2F92
:10194C00002A03D1C5E8413F0029F7D1EFD12B7311
:10195C00BFF35B8F6B70BFF35B8F2B1D53E8006F76
:10196C0043E80042002AF9D1BFF35B8F002EDED092
:10197C002046FFF795FC074660B1304605F10C0197
:10198C00FFF716FE3046FFF78CFD1021304602F0B3
:10199C0006FBCCE7314603A8FFF77CFF2B7B10201E
:1019AC008DF81C30FEF771FB0546D0B18760142012
:1019BC00FEF76BFB044678B10146876003A8FFF77E
:1019CC00D6FD059BA268A360069B0592E268E360C6
:1019DC009DF81C3006922374064B2C60EB60064B72
:1019EC00AB6003A8FFF75DFD002229460348FFF713
:1019FC005FFCC7E7CF150A08BF180A086B140A0862
:101A0C007047F8B5064615460C468F18BC4206D0F2
:101A1C00336830469B6814F8011B9847F6E7284654
:101A2C00F8BD0022007CFFF7D9BA0021007CFFF73B
:101A3C00DDBA0021007CFFF7E1BA0021007CFFF742
:101A4C00E5BA0021007CFFF7E9BA10B50446142171
:101A5C0002F0A5FA204610BD10B54FF47A73044677
:101A6C0008460021C4E90113034B1146236020747E
:101A7C00FFF7E4FA204610BDEC470A08F8B50E460D
:101A8C00002400F10807051D17F8011D0A22304635
:101A9C0001F0CBFAAF42044401D12046F8BD002C32
:101AAC00F2D02E21304601F0A7FA0444ECE70000F6
:101ABC0010B50446044B1122002140F8043B02F0FF
:101ACC00C9FB204610BD00BF14480A080346074A4C
:101ADC0010B543F8042B01F1100251F8044B91425C
:101AEC0043F8044BF9D10A781A7010BD14480A084F
:101AFC00024AC0E9002104220275704714480A0802
:101B0C0010B59DF8084044EA0324042344EA024437
:101B1C0044EA01644460037510BD000037B5044D00
:101B2C0005609DF818500095FFF7EAFF03B030BD33
:101B3C0014480A08012200F1100313F8101C18466F
:101B4C00012908D153F8041C02EB4102013A03F1BC
:101B5C001003F2D17047022904BF53F8041C521829
:101B6C00F4E70EB42DE9F04187B000AF07F134056E
:101B7C0055F8048B04462B464246102107F1080009
:101B8C007D60FFF749FC0F281BD900F1080323F0F7
:101B9C0007036E46ADEB030D4246411C2B466846CF
:101BAC007D60FFF739FC021E04DD23686946204680
:101BBC009B689847B5461C37BD46BDE8F04103B05D
:101BCC0070470028F7D0236802469B68204607F12F
:101BDC0008019847EFE710B5044603689B689847DF
:101BEC00A368013BA3602BB923682046BDE81040D5
:101BFC00DB68184710BD07B503688DF80710012284
:101C0C009B680DF10701984703B05DF804FB38B5EC
:101C1C000B68044603604D6843689D420CD015B1B7
:101C2C006B6801336B60606828B14368013B4360AB
:101C3C000BB9FFF7D0FF6560204638BD0B46114647
:101C4C00002210B50446C0E9002283600BB920467F
:101C5C0010BDFFF7DCFFFAE70346806820B302787B
:101C6C00032A1AD8DFE802F00417021B052070477C
:101C7C001B685A684368D05C2D2812D0A0F1300341
:101C8C00092B0ED974280ED066280CD0A0F16E0347
:101C9C005842584170470620704700207047042076
:101CAC007047032070470220704710B50446FFF7B9
:101CBC00D3FF02280ED0C31EDBB2012B14D822682E
:101CCC00A36850685B680A22BDE8104000211844E4
:101CDC0002F0F0BB2268A36852685B68D05CA0F18C
:101CEC0074035842584110BD0020FCE70B461146C6
:101CFC00002210B50446C0E900220D48C4E90202D6
:101D0C00A3B11A78032A06D082B90A6850685A68B7
:101D1C00825C6E2A07D00A68586852689B68024435
:101D2C001B1AA260E3602046FFF771FF204610BD2E
:101D3C00A5470A0838B500250B4604461146C0E9EC
:101D4C000055C0E90255C0E904554BB11A78012A77
:101D5C0006D103F11002DB6882604361FFF757FF85
:101D6C00204638BD10B54369044663B18068013B19
:101D7C00E0601030A0602061636113B1FFF7DAFE00
:101D8C00A060012000E0184610BD10B57D2104466E
:101D9C00FFF731FF01232046237110BD08B50379ED
:101DAC00012B02D0022B04D008BD2C21FFF723FFFE
:101DBC00FAE73A21FAE710B50446FFF7EFFF2046A1
:101DCC007B21FFF718FF00232046237110BD000074
:101DDC0038B504460D46FFF7E1FF236820462A4636
:101DEC00DB680349984701232046237138BD00BFA7
:101DFC0020480A0838B504460D46FFF7CFFF236884
:101E0C0020462A46DB680349984701232046237164
:101E1C0038BD00BF23480A082DE9F0410D4617468E
:101E2C0022210446FFF7E7FE2946DFF898802F446D
:101E3C00BD422A4638D015F8016B222E03D05C2EF9
:101E4C0001D01F2EF4D82368521A20469B6898475D
:101E5C005C212046FFF7CFFE0D2E0AD8072E1CD989
:101E6C00A6F10803052B18D8DFE803F00D0F1117A6
:101E7C001315222E01D05C2E0FD131462046FFF7D0
:101E8C00BAFE2946D4E76221F8E77421F6E76E2101
:101E9C00F4E76621F2E77221F0E723683246414607
:101EAC002046DB689847ECE78D4204D02368204637
:101EBC009B686A1A984722212046FFF79CFEBDE8D2
:101ECC00F08100BF26480A0870B504460D46164638
:101EDC00FFF764FF204632462946FFF79DFF022399
:101EEC002046237170BD70B504460D461646FFF7AB
:101EFC0055FF204632462946FFF78EFF0123204628
:101F0C00237170BD80680368DB681847704708460A
:101F1C0011B10B685B681847704770477047704782
:101F2C0038B504460D4600682E2102F0CCF9236822
:101F3C000246C01A286020B1137803B10132206820
:101F4C00226038BD10B504460C2102F028F820465A
:101F5C0010BD10B50446042102F021F8204610BD36
:101F6C0010B50446042102F01AF8204610BD08B53D
:101F7C0002F0B3F9B0FA80F0400908BD10B50C4678
:101F8C0001F0B4FD844205D101F0B0FDBDE8104074
:101F9C0001F092BD01F0E8FD844202D101F0E4FDB4
:101FAC00F4E701F00DFD844205D101F009FDBDE817
:101FBC00104001F002BD2CB123682046BDE8104052
:101FCC005B68184710BD38B5054608460C4602F04C
:101FDC00B2F9214602462846BDE83840FFF783BFD8
:101FEC0070B5044608460D4602F0A5F92368024672
:101FFC0029462046BDE87040DB68184707B50368E2
:10200C008DF807100122DB680DF10701984703B02A
:10201C005DF804FB0EB403B503AB53F8042B00219D
:10202C00006A019301F01EF802B05DF804EB03B0F6
:10203C00704700002DE9F74F4FF01408D0E90095D8
:10204C0017464C4608FB05F50093AB10174D5D4346
:10205C00002D23DD6E1008FB06F004EB000ABAF825
:10206C0004B03A465F4528BF5A462058019102F009
:10207C006AF90123019978B95F4503D1009A13706D
:10208C003546E5E78CBF012000200028F8D0AE1BB8
:10209C000AF11404013EF3E7C00FF6E7A4EB0904C0
:1020AC000248A410604303B0BDE8F08FCDCCCCCC7B
:1020BC007FB50369067E019103B3F9B1002500F1E8
:1020CC000C04039503A901A8FFF72AFF0146A8B148
:1020DC000DF10B032046039A8DF80B50FFF7AAFF66
:1020EC009DF80B3053B11423246803FB0044B4F95E
:1020FC0006300834002BA8BFDEB2E3E7304604B04C
:10210C0070BD000010B50A4C2378BFF35B8FDB0762
:10211C000BD42046FDF7CAFF38B12046FDF7CBFFA4
:10212C00044A0549054801F035FF044810BD00BFBD
:10213C00380D002080000020291F0A081000002004
:10214C0010B50A4C2378BFF35B8FDB070BD420460A
:10215C00FDF7ACFF38B12046FDF7ADFF044A054949
:10216C00054801F017FF044810BD00BF3C0D0020CE
:10217C0080000020271F0A081400002038B5002515
:10218C000446C0E90055C0E904558560856140F8F6
:10219C00245FFEF7C3FEFFF7B5FFE061FFF7D0FF4A
:1021AC0025732062204638BD10B50B4C2378BFF345
:1021BC005B8FDB070ED42046FDF778FF50B1074844
:1021CC00FFF7DCFF2046FDF776FF054A054903487B
:1021DC0001F0E0FE014810BD340D0020440D00203C
:1021EC008000002067260A080023024A024903489F
:1021FC00FFF736B845250A08D1240A0851240A08E5
:10220C0000231A4619461846FFF72AB837B5044674
:10221C000D6951F8043B01A80093FFF782F96A4657
:10222C0029462046FFF70AFD01A8FEF738F820469C
:10223C0003B030BD37B504468D6851F8043B01A896
:10224C000093FFF76EF96A4629462046FFF772FDA8
:10225C0001A8FEF724F8204603B030BD37B504467C
:10226C00CD6851F8043B01A80093FFF75AF96A4670
:10227C0029462046FFF73AFD01A8FEF710F8204644
:10228C0003B030BD70B58AB00D46014604A8FFF707
:10229C00D1FF144E04A8FFF765FDE8B1684604A908
:1022AC00FFF7DCFF31460298FFF761FE044610B1E0
:1022BC002C1E18BF012401A8FDF7F1FF002CE9D05A
:1022CC00684604A9FFF7A2FF6846FFF7EEFC2860FA
:1022DC0001A8FDF7E4FFDDE705A8FDF7E0FF0AB074
:1022EC0070BD00BF2C480A0837B50C46194920466A
:1022FC00154601F0F2FF48B901F0F8FB4FF4165106
:10230C0001F0D6FB01F0F2FB03B030BD20461249C0
:10231C0001F0E3FF40B901F027FC4FF4165101F036
:10232C00C7FB01F021FCEFE720460C4901F0D5FF7B
:10233C0070B94FF4165301A928460193FFF7A2FF79
:10234C0001F03EFB019901F035FB01F039FBDBE7B5
:10235C000020D9E731480A0838480A083B480A08DF
:10236C0070B51426D0E90053044606FB0356AE4262
:10237C0005D005F10800FFF7F3FF1435F7E72068E7
:10238C00FFF73AF8204670BD70B50446D0E900530B
:10239C0005EB0316AE4204D0284600F0B8FE10350B
:1023AC00F8E72068FFF728F8204670BD10B5044602
:1023BC000C30FFF7D5FF2046FFF7E6FF204610BD97
:1023CC0010B50446034B40F8043BFFF7EFFF2046E3
:1023DC0010BD00BF28470A0810B50446FFF7F0FFF0
:1023EC002046242101F0DBFD204610BD10B504462B
:1023FC00024B0360FFF7E4FF204610BDD8480A08E3
:10240C0010B50446FFF7F2FF2046242101F0C7FD6A
:10241C00204610BD0022C0E90022826010B50C6875
:10242C000A6004604C684A6044608C688A6084600E
:10243C0010BD10B5044603681868FEF787FD2046EA
:10244C0010BD00002DE9F04F87B003931C4B804664
:10245C005B688946C3F3080316466BB9FFF7A4FE05
:10246C00044600F12403406A0593FEF767FD237BC5
:10247C002BB105A8FFF7DDFF07B0BDE8F08F0123F6
:10248C005FFA89F92373D4E9005305EB830AAA4553
:10249C0012D055F8047B3146381DFFF709FE8145F3
:1024AC00F5D3039A3B680092D3F808B04A463346FA
:1024BC0041463846D847EAE700232373D9E700BFE3
:1024CC0000ED00E02DE9F74F9B461A4B80465B6808
:1024DC008946C3F3080316466BB9FFF765FE04463D
:1024EC0000F12403406A0193FEF728FD237B2BB1F6
:1024FC0001A8FFF79EFF03B0BDE8F08F0123F6B2F1
:10250C002373D4E9005305EB830A55450ED055F8D7
:10251C00047B5946381DFFF7CBFD8642F5D33B684B
:10252C004A4641463846DB689847EEE7002323735A
:10253C00DEE700BF00ED00E02DE9F341164B054648
:10254C005B680F46C3F308031BBBFFF72DFE044665
:10255C0000F12403406A0193FEF7F0FCD4E9006318
:10256C00462406EB8308B04509D101A8FFF761FFAB
:10257C00A542B4BF0020012002B0BDE8F08156F89E
:10258C00040B39460430FFF793FD8442A8BF044680
:10259C00E9E70020F0E700BF00ED00E00B4670B566
:1025AC00044605C800EB8202824207D001461D6832
:1025BC0051F8046BAE4203D00846F5E7002070BD1D
:1025CC00521A01F02DFE63680120013B6360F6E7AF
:1025DC001FB5044600F12403406A01910393FEF7F2
:1025EC00ADFC204601A9FFF7D9FF18B163680BB900
:1025FC00FFF706FE03A8FFF71CFF04B010BD18235D
:10260C0070B50446D0E9045603FB0656AE4215D00D
:10261C00204605F11001FFF7C1FF63680BB9FFF706
:10262C00EFFDE06929690368DB689847696919B1AE
:10263C00206A0368DB6898471835E7E71826D4E961
:10264C00045306FB0356AE4204D0284600F05FFD4F
:10265C001835F8E70023636170BD73B50446FFF7C6
:10266C00CFFD04F12403606A0193FEF767FC20465A
:10267C00FFF7C5FF01A8FFF7DCFE606A08B1FEF7A3
:10268C0055FCD4E90453182606FB0356AE4204D07D
:10269C00284600F03CFD1835F8E72069FEF7ACFE43
:1026AC002068FEF7A9FE204602B070BD8842F8B53E
:1026BC0006460C46154627D9904226D20026A2F192
:1026CC0014056C1AA1F114070444AF423DD0A4B117
:1026DC002B682360AB88A380B5F90630C4E9026689
:1026EC002661E380AB68A360AE60E368EA68E260F1
:1026FC00EB6023692A6922612B6105F10800FFF761
:10270C002FFE143D143CE0E71FD00027AC421CD038
:10271C00A6B123683360A388B380B4F90630C6E948
:10272C0002773761F380A368B360A760F368E2684F
:10273C00F260E360336922693261236104F10800BD
:10274C00FFF70EFE14341436E0E7F8BDF8B5D0E907
:10275C0001539D4204460E4617460DDB0135002DF4
:10276C00006804DDA900FEF74FFE18B9F8BDFEF7AE
:10277C0043FE00202060A5602568626805EB860199
:10278C009200A2EB8602081D01F04AFD45F8267066
:10279C006368012001336360E8E737B5044600F154
:1027AC002403406A0D460193FEF7C8FBD4E90031BF
:1027BC0003EB810083421A460AD012680433AA4202
:1027CC00F8D101A8FFF735FE0025284603B030BD2F
:1027DC002A462046FFF7BAFF05460028F1D0636869
:1027EC00012B01D1FFF700FD01A8FFF722FEECE75A
:1027FC008842F8B504460D46164614D9904213D2B9
:10280C00A2F11006751AA1F110072C44B74218D08A
:10281C001CB13146204600F0F4FC304600F077FC49
:10282C00103E103CF2E70CD0B5420AD01CB1294640
:10283C00204600F0E6FC284600F069FC1035103408
:10284C00F2E7F8BD70B50E1E054611DD3001FEF73E
:10285C00CBFD044658B1D5E9001201EB0212FFF78B
:10286C00C7FF2868FEF7C8FD01202C60AE6070BD64
:10287C000024F6E72DE9F04F91460023462297B04D
:10288C000391D9F8041004469942C0E90033C0E919
:10289C000233C0E90433CDE90A3302760C9323DC0E
:1028AC00D9E90057142303FB0757AF423BD0294605
:1028BC000DA800F0A6FC0DA911A80B9E00F0A1FC20
:1028CC00DDE90B1399421BDA0A9B0B9A03EB0616F4
:1028DC00314603EB021206F11000FFF789FFEEB947
:1028EC000B9B01330B9311E00AA8FFF7ABFF0028F9
:1028FC00D6D10AA8FFF748FD204617B0BDE8F08FE7
:10290C0001310AA8FFF79EFF0028DDD111A800F0C5
:10291C00FEFB0DA800F0FBFB1435C6E7304611A9F1
:10292C0000F06FFCDCE700264FF0140A3746CDE9C7
:10293C000D660F96DDE90A239E4280F297803301E3
:10294C00D35808930BB90136F4E70AFB06F3099741
:10295C0002930DAD09A908A8FFF7E2FA83460028F7
:10296C00F1D00146099A28460DF11F038DF81F700E
:10297C00FFF760FB9DF81F800190B8F1000F66D146
:10298C00BDF82430CDE91388ADF848304FF6FF730D
:10299C00CDF844B0ADF84A30CDF85480D5E90132C9
:1029AC0093421ADB03F1010BBBF1000F4ADD0AFB6A
:1029BC000BF0FEF719FD0490002845D0D5E9001264
:1029CC000AFB0212FFF772FE049B28680493FEF7C1
:1029DC0013FD049BC5F808B02B60019BD5F800B023
:1029EC000AFB03F36A680BEB030101F114000AFB09
:1029FC0002B204910593FFF759FE0499A9B1119AFB
:102A0C00059B4BF80320BDF848308B80BDF94A304C
:102A1C00C1E902770F61CB80139B8B60149B1397DA
:102A2C00CB60159B14970B6115976B6801336B602A
:102A3C0013A8FFF795FCB8F1000F08D00DA8FFF70D
:102A4C008FFC56E74346C0E74FF00108F0E7019BC7
:102A5C002D680AFB0355089B1B782BB9D9F800305D
:102A6C00029A13441B7CEB80083573E721682260C3
:102A7C0062686360A3680B920C9A0C93E368A26083
:102A8C000D9A0D932369E2600E9A0E93636922618D
:102A9C000F9A0F93039B0A9162612376CEE7000095
:102AAC007FB505460E460446084B114645F8043BD7
:102ABC0001A8FDF727FF314601AA2846FFF7DAFEE9
:102ACC0001A8FDF70FFC204604B070BD28470A088A
:102ADC00F0B50F4687B03846254916461D460C9C66
:102AEC0001F0FBFB00BBE4B129466846FFF792FC02
:102AFC002420204901F055FA054670B1694603A817
:102B0C00FDF700FF314603AA2846FFF7C9FF03A8CB
:102B1C00FDF7E8FB184B2C622B606846FDF7E2FBD7
:102B2C002C46204607B0F0BD3846144901F0D5FBC1
:102B3C00E0B9002CF5D029466846FFF76BFC242041
:102B4C000C4901F02EFA05460028E6D0694603A888
:102B5C00FDF7D8FE314603AA2846FFF7A1FF03A8CC
:102B6C00FDF7C0FB064B2C622B60D6E70024D8E7A0
:102B7C0043480A08984A0A08D8480A0847480A08E5
:102B8C00C0480A08014B024A1A607047400D0020E9
:102B9C0058480A082DE9F047089DD0F820900446C3
:102BAC000E461746984600F0A1FF81454DD02B7973
:102BBC00190704D520466A695449FFF72BFAB8F176
:102BCC00000F0DD05B212046FFF718FA4146204636
:102BDC00FFF706FA236802222046DB684C49984727
:102BEC002B79DA0724D5D5F808802F21404601F03F
:102BFC00BCFB08B100F1010841462046FFF7F0F993
:102C0C002B799B0708D53A212046FFF7F7F9204688
:102C1C00EA684049FFF7FEF92A79236812F0040F9D
:102C2C0020464FF00202DB6814BF3B493B499847F2
:102C3C002B7958071DD529690B461A4613F8010B39
:102C4C0060B1202808D11946F7E7354800F067F93C
:102C5C000028ACD0BDE8F0872828EED12368521AA2
:102C6C002046DB689847236804222046DB682D4900
:102C7C00984700213846FEF7EBFA01462046FFF74D
:102C8C00AFF9236802222046DB68244998471EB11D
:102C9C0031462046FFF7A4F92B7913F0300F2CD0D6
:102CAC0023682149DB680222204698472B79D906F4
:102CBC000AD52368072220461C49DB689847204622
:102CCC00AA691B49FFF7A6F92B799A0611D5DB06E1
:102CDC0005D5236802222046DB680F4998472368F4
:102CEC00204614490A22DB6898472046E969FFF719
:102CFC0077F95D212046FFF781F923682046BDE86E
:102D0C00F0470222DB680C49184700BF5C480A08F0
:102D1C0063480A0820480A0866480A086B480A08EB
:102D2C006C0D002069480A086E480A0871480A08A8
:102D3C0079480A087C480A08A3470A082DE9F04399
:102D4C0085B0D0F8209005460F4690461E460C9C48
:102D5C0000F0CCFE814505D1494800F0E0F8002890
:102D6C0040F08A804FF000092B6A464A01A8019274
:102D7C0003938DF80890FFF71EF849464046FEF77E
:102D8C0067FA80464049012201A8FFF79DF84146A9
:102D9C00FFF719F93FB13D49012201A8FFF794F85B
:102DAC003946FFF710F93EB13949012201A8FFF766
:102DBC008BF83146FFF707F92379DF070ED5A668A4
:102DCC002F21304601F0D1FA00B1461C31490122C5
:102DDC0001A8FFF779F83146FFF7F5F823799E073C
:102DEC0007D52D49022201A8FFF76EF8E168FEF71E
:102DFC00EFFF2379580714D5266933461F4613F87D
:102E0C00012B2AB1202A01D11E46F7E7282AF5D139
:102E1C000222224901A8FFF757F83146BA1BFFF7E7
:102E2C0062F82379190707D51D49012201A8FFF77C
:102E3C004BF86169FEF7DEFF2379DA0608D5042228
:102E4C0018490DEB0200FFF73FF8A169FEF7C0FF30
:102E5C0023799B0607D51449062201A8FFF734F8FD
:102E6C00E169FFF7B0F801A8FEF78FFF286A02228C
:102E7C0003680E49DB68984705B0BDE8F08300BFD6
:102E8C006C0D0020A8480A0836480A0887480A082A
:102E9C0089480A088B480A088D480A0890480A088D
:102EAC0010450A0893480A0898480A08A3470A08D4
:102EBC00002340681A46FEF737BA00220221406808
:102ECC00FEF742BA002240681146FEF735BA0022DE
:102EDC0040681146FEF740BA002340681A4619466E
:102EEC00FEF742BA002340681A461946FEF744BA68
:102EFC0000214068FEF768BA00214068FEF76CBA02
:102F0C000022406881F00101FEF73EBA00224068C1
:102F1C00FEF74ABA002240681146FEF74DBA00226D
:102F2C0040681146FEF738BA70B515468EB00446A7
:102F3C0008A8FEF7BDFD1122002103A801F08AF9B3
:102F4C000026284601F0F7F90A4B009681B25B681F
:102F5C00284603AAFEF764F930B131462046FEF745
:102F6C00C7FD20460EB070BD204603A9FEF7AEFD8E
:102F7C00F7E700BFEC110020034A044B042814BFF0
:102F8C0010461846704700BF6C0D0020EC11002055
:102F9C00024B034A1A6000225A6070476C0D0020E5
:102FAC0020490A08F8B506460D4600248F18BD4284
:102FBC000CD0336830469B6815F8011B9847031EEC
:102FCC0001DB1C44F3E7002C08BF1C462046F8BD6F
:102FDC0070B505460C46084649B101F0ACF92B68B2
:102FEC00024621462846BDE87040DB68184770BD94
:102FFC0008B5FFF7EDFF08BD03689B68184738B5A7
:10300C000D210546FFF7F8FF0A2104462846FFF775
:10301C00F3FF204438BD38B50546FFF7D9FF044609
:10302C002846FFF7ECFF204438BD0023012A98BF47
:10303C000A2230B58BB00C468DF8243009A92546F0
:10304C00B4FBF2F404FB1253DBB2092B94BF303304
:10305C003733DBB2AA4201F8013DF0D9FFF7B8FFD4
:10306C000BB030BD2DE9F04186B000AF05460E46E1
:10307C00381D142114463B60FEF7CEF913280ED8E8
:10308C002846391DFFF7A4FF04461EB12846FFF75A
:10309C00B6FF044420461837BD46BDE8F08100F168
:1030AC00080323F00703E846ADEB030D2246411C51
:1030BC003B686846FEF7B0F969462846FFF788FF7B
:1030CC000446C546E1E710B50446FEF7EAF920468A
:1030DC0010BD000000230348034A0449836000F03C
:1030EC0059BF00BF740D002080000020D3300A08A7
:1030FC0070B5002604460D4640F8086FFDF70EFF2C
:10310C0028462570FDF7E4FF2046666070BD10B5BB
:10311C0004460068FEF770F9204610BD10B5044651
:10312C00006808B1FEF768F90023C4E90133236095
:10313C0010BD38B504460D4600680131FEF764F940
:10314C0010B1C4E90005012038BD10B50368044670
:10315C0023B143688B4201D3012010BD2046FFF7F9
:10316C00E8FF0028F9D0A368002BF5D12268137072
:10317C00F2E770B50E46114604461546FFF7E5FF1B
:10318C0020B92046FFF7CAFF204670BD2A463146BB
:10319C002068A56001F036F800212268A368D1549C
:1031AC00F2E738B5002304460D46C0E900338360CE
:1031BC00037339B1084601F0BEF829460246204691
:1031CC00FFF7D7FF204638BD38B5054600680C46DA
:1031DC0068B16A688B689A4207D3096801F087F86E
:1031EC00A368AB600023A36038BDFEF705F9236824
:1031FC002B6063686B60A368AB600023C4E9003389
:10320C00F1E7002310B50446C0E900338360037373
:10321C00FFF7DAFF204610BD884210B50B46044676
:10322C0004D0096821B19A68FFF7A3FF204610BDAE
:10323C00FFF774FFFAE7002310B50446C0E900332A
:10324C0083600373FFF7E8FF204610BD884210B57A
:10325C00044601D0FFF7B8FF204610BD38B505462F
:10326C000C4649B1084601F066F82146024628464C
:10327C00FFF77FFF284638BDFFF750FFFAE770B520
:10328C0005460E4609B9002070BD6AB18468144425
:10329C002146FFF75AFF0028F5D02868AB68314665
:1032AC00184401F024F8AC600120EDE78A68096845
:1032BC00FFF7E5BF10B58A6809680446FFF7DFFF22
:1032CC0010B92046FFF72AFF204610BD38B504463A
:1032DC000D4621B92046FFF721FF204638BD084690
:1032EC0001F029F8294602462046FFF7C8FF0028BE
:1032FC00F0D0F2E708B582683AB921B10878B0FA93
:10330C0080F0400900E0012008BD006809B9007890
:10331C00F5E700F0E2FFF2E710B58368934207D9B6
:10332C0004680968A01801F034F808B1001B10BD3E
:10333C004FF0FF30FBE70022FFF7EEBFF8B51D465C
:10334C009A4288BF13460F46144688BF2C460B4939
:10335C0088BF1D460646FFF724FFBA68A2420AD36F
:10336C003968AA4294BFC4EB0202C4EB0502304692
:10337C002144FFF7FEFE3046F8BD00BFA5470A0802
:10338C0010B504468B68FFF7D9FF204610BD0068C6
:10339C0008B100F025BF704710B50446006818B19D
:1033AC00FEF72AF80023236010BD10B50446FFF782
:1033BC00F3FF204610BD00000222002010B5084B80
:1033CC00084C1A60084B2060A080A071A360FDF728
:1033DC004FFF2046BDE81040044A054900F0DABD15
:1033EC00900D0020840D00200000FFFF80000020C5
:1033FC00B7330A0813B503688DF80710DC6B01228C
:10340C0047F230530DF10701A04702B010BD10B4C4
:10341C000368DC6B47F23053A44610BC604713B50D
:10342C00134602688DF80710D46B0DF107010122C9
:10343C00A04702B010BD70477047000010B504469D
:10344C00064B0846994204F10C0404D000F0B0FD80
:10345C00002808BF0024204610BD00BF8C490A0874
:10346C0010B50446AC2100F09AFD204610BDFCF7C7
:10347C0010BE000038B50B4B8469054603607CB167
:10348C006368013B63605BB9236820469B6898477F
:10349C00A368013BA3601BB923682046DB689847EF
:1034AC00284638BD9C490A0810B50446FFF7E2FFD0
:1034BC0020461C2100F073FD204610BD70B504465B
:1034CC0006464D69044B8C3544F8043B0FCD0FC4B4
:1034DC002B683046237070BD14480A0810B5436938
:1034EC000446B3F88620B3F884309A4205D0636959
:1034FC00B3F884201344187910BD03681B699847EE
:10350C000028F4D14FF0FF30F6E710B543690446BC
:10351C00B3F88620B3F884309A4208D06369B3F8C4
:10352C008420511CA3F884101344187910BD03682F
:10353C001B6998470028F1D14FF0FF30F6E7F8B53A
:10354C0043691746B3F88620B3F8843005469A428F
:10355C000E4616D069693046B1F88430B1F8864011
:10356C00E41ABC4228BF3C4604332246194400F0FE
:10357C0049FE6A69B2F884302344A2F884302046AC
:10358C00F8BD03681B6998470028E3D14FF0FF345E
:10359C00F5E700234269A2F884304269A2F886302C
:1035AC00704700002DE9F0431F4603688BB0DB6ABF
:1035BC0005460C46164698473846FFF7DDFC03686F
:1035CC00DB689847002854D033460622012102209C
:1035DC000097D5F81480FDF74BFD2023C8F80000A8
:1035EC004FF00008CDE902386B6901201B682349B4
:1035FC000193234B02AA00934346FDF721FE6B690E
:10360C001868FDF72DFD002833D02846FFF7C1FFC1
:10361C000223ADF80830E37976BA8DF80C30A37933
:10362C004FF4FA508DF80D306379ADF80A608DF8CF
:10363C000E3014F8043F8DF80F30FDF7E9FD6B697F
:10364C0006461022186802A9FDF71AFD814630467D
:10365C00FDF7DEFD0FCC6E698C360FC62368337018
:10366C002F61B9F1000F07D02B682846DB6A984709
:10367C0040460BB0BDE8F0830120FAE754490A0834
:10368C005B490A0838B542690446B2F886302BB15A
:10369C00B2F884209A4201D1FFF77BFF2069FFF733
:1036AC006BFC0368DB689847F8B163691868FDF731
:1036BC00D7FCD0B16069B0F886107F2915D8051DEC
:1036CC00C1F18002002300682944FDF7E1FC0028C9
:1036DC000BDD6369B3F886200AB9A3F8842063690B
:1036EC00B3F886201044A3F886006369B3F886000B
:1036FC00B3F88430C01A38BD38B54369044618682D
:10370C00FDF7AEFC18B163691868FDF7C9FC656973
:10371C00FDF7CEFC28606069112200218C3000F08E
:10372C0099FD2046BDE83840FFF733BF10B543691B
:10373C0004461868FDF794FC08B9002010BD2069F8
:10374C00FFF71AFC0368DB6898470028F5D063691B
:10375C001868FDF77DFCB0FA80F04009EEE708B57B
:10376C00FFF7E4FF003818BF012008BD2DE9F34135
:10377C000027476004460D4616469846FFF7D6FFCD
:10378C0070B1CDE9008760693B4632462946006836
:10379C00FDF796FC002800DA606002B0BDE8F0810D
:1037AC004FF0FF30F8E770B50546FFF7BFFFE8B9FB
:1037BC006B69B3F88610B3F88420914216D118685F
:1037CC00FDF74EFC08B9002070BD6B691868FDF759
:1037DC003FFC01280446F6D12B6828461B69984704
:1037EC0030B92B682846DB6A9847ECE70120EBE7F9
:1037FC002046E9E7002310B504460160C0F8843088
:10380C008830FEF755F9204610BD0000F8B54FF48E
:10381C007A720023C0E901320D4A036102604361F0
:10382C000446AC200E46FCF730FC051E05F10C07D7
:10383C0008D00123C5E90133064B314638462B60CD
:10384C00FFF7D8FF2046C4E90575FFF7A2FEF8BDC7
:10385C009C490A0878490A0810B50446FDF728FC6B
:10386C0001462046FFF7D2FF204610BD10B5044696
:10387C000068FDF7F5FB10B12068FDF711FC204640
:10388C0010BD0C30FFF7F2BF2DE9F0431F46036863
:10389C008FB0DB6A06460D46904698471348FFF7F3
:1038AC0016FBF0B102A8FEF703F9284600F043FD21
:1038BC00002481B23B462846009403AAFDF7B0FCD5
:1038CC0090B9336809ADD3F82090094B03AC089339
:1038DC000FCC0FC5236842462B7030463B4608A9D7
:1038EC00C8470FB0BDE8F0832046FAE76C0D002006
:1038FC0014480A08024B1A68024B1A60704700BF42
:10390C0018000020940D002070474174704708B5D2
:10391C00007CFDF72DFC20EAE07008BD08B5007CAA
:10392C00FDF7FEFB20EAE07008BD08B5007CFDF752
:10393C0007FC40EAE07008BD08B5007CFDF7F8FB19
:10394C0040EAE07008BD007CFDF702BC70B5467C17
:10395C0004460D462EB12946207CBDE87040FDF78B
:10396C00D7BB007CFDF704FC0028F4DC304670BDAE
:10397C0010B50446142100F012FB204610BD0000C7
:10398C004FF0000C10B50446084611464FF47A72FD
:10399C00C4E901C2044A20742260012262741A46EE
:1039AC00FDF7A6FB204610BD044A0A080023007C44
:1039BC00FDF7E6BB0022FFF7F9BF007CFDF7A0BBCB
:1039CC0038B50D4D2978BFF35B8F11F0010411D17F
:1039DC002846FCF76BFB68B12146084A084B09489E
:1039EC00FFF7CEFF2846FCF766FB074A0749054858
:1039FC0000F0D0FA034838BD980D00209C0D002033
:103A0C00200E0020A40E00208000002015390A088A
:103A1C0041747047704708B50021007CFDF7E0FB4E
:103A2C0040EAE07008BD08B50121007CFDF7D8FB29
:103A3C0040EAE07008BD08B5007CFDF7C9FB20EA40
:103A4C00E07008BD08B5007CFDF7BAFB20EAE07019
:103A5C0008BD38B50446007C0D46FDF7B9FB0028BF
:103A6C0001DC607C28B12946207CFDF7C1FB20EAF3
:103A7C00E07038BD007CFDF7C3BB10B504461421C3
:103A8C0000F08DFA204610BD10B54FF47A73044641
:103A9C0008460021C4E90113044B20742360012360
:103AAC0011466374FDF774FB204610BD344A0A08B6
:103ABC000022007CFDF774BB007CFDF779BB000095
:103ACC0010B504461422002100F0C4FB054B20461F
:103ADC006360054BE36040F2011323818123238251
:103AEC0010BD00BFE80E0020E90F002030B50F4DCF
:103AFC0087B001A8FFF7E4FF2978BFF35B8F11F0C3
:103B0C00010410D12846FCF7D1FA60B1214601AA74
:103B1C000748FFF7B9FF2846FCF7CDFA054A0649D6
:103B2C00034800F037FA024807B030BDB80E002049
:103B3C00C00E002080000020213A0A0810B504466F
:103B4C001422002100F086FB054B20466360054BD8
:103B5C00E36040F2011323818123238210BD00BF57
:103B6C006A1000206B11002010B50F4C86B001A814
:103B7C00FFF7E4FF2378BFF35B8FDB0710D42046FD
:103B8C00FCF794FA60B1012101AA0848FFF77CFF09
:103B9C002046FCF790FA064A0649044800F0FAF968
:103BAC00024806B010BD00BFBC0E0020D40E002091
:103BBC0080000020213A0A08002240681146FDF7D7
:103BCC00CBBBF0B5154689B011220E460446002138
:103BDC0003A800F03FFB284600F0ADFB002781B2A4
:103BEC0073682846009703AAFDF71AFB30B13946D3
:103BFC002046FDF77DFF204609B0F0BD204603A905
:103C0C00FDF764FFF7E7002240681146FDF7C4BBDF
:103C1C00002240681146FDF7CFBB00224068FDF73B
:103C2C00C3BB0022406881F00101FDF7ADBB00234E
:103C3C0040681A461946FDF79FBB002340681A4698
:103C4C001946FDF791BB002240681146FDF774BB85
:103C5C00002202214068FDF777BB002340681A461A
:103C6C00FDF762BB0422024B5A60024A1A6070478D
:103C7C00EC110020644A0A08014B1860704700BF21
:103C8C001C00002008B5134B43B1FFF72FFF03684E
:103C9C001B699847002801DDAFF300800E4B43B140
:103CAC00FFF78EFE03681B699847002801DDAFF310
:103CBC0000800A4B0BB1AFF30080094B43B1FFF707
:103CCC0053FF03681B699847002801DDAFF30080A0
:103CDC0008BD00BF00000000000000000000000054
:103CEC000000000008B5FFF7CDFFFDF747F9014BC9
:103CFC00186008BD0C1200200248034A0349121A2E
:103D0C0000F080BA0040024004400240B04C0A0867
:103D1C00002307B51A466FF077010093FDF7DAFA26
:103D2C0003B05DF804FB000007B543880A2B08D0EC
:103D3C00502B0BD1094B1B684BB103B05DF804EB56
:103D4C001847FFF7E5FF03B05DF804FB00231A46A4
:103D5C006FF077010093FDF7BDFAF4E7F81100203E
:103D6C0038B5124C00211248FDF76EFB114D23683B
:103D7C00AB420CBF012200220F4B1A7002D0FFF78E
:103D8C00BBFF2560FDF7EAF8044600F06BFA0B4B1D
:103D9C0013B12046AFF3008000210848FDF7BCFAB0
:103DAC00BDE8384000210648FDF78ABA00400240C1
:103DBC00853C0A081E1C279AF41100200000000004
:103DCC00353D0A0810B50446806808B1FDF7AEF819
:103DDC00204610BD172870B5044601D9002070BDCF
:103DEC00A0F10D03022B0BD9012826D800F092F874
:103DFC000021007CFDF71AF980F00100C0B2EEE75B
:103E0C00134E3178BFF35B8F11F001050FD13046A3
:103E1C00FCF74CF958B129460E48FFF769F93046C2
:103E2C00FCF749F90C4A0D490A4800F0B3F8094B64
:103E3C001878FDF755F90028D0D1123C012C05D883
:103E4C00FFF7BEFD007CFDF78BF9D5E70120C6E737
:103E5C00FC1100200012002080000020D13D0A0837
:103E6C00172838B504460D460AD8FF2908D0FFF7A5
:103E7C00B1FF28B129462046BDE83840FDF78EB881
:103E8C0038BD38B504460D46FDF790F8FF2810D024
:103E9C00062804D84D2323FA00F0C30709D4204682
:103EAC00FFF798FF28B129462046BDE83840FDF7BA
:103EBC0085B838BD10B5044609289CBF0A34A4B295
:103ECC002046FFF787FF50B103212046FDF75EF82F
:103EDC00032804D12046BDE81040FDF777B8002038
:103EEC0010BD0000002370B5202543801423084E1C
:103EFC0004460380314685600561284600F053F87E
:103F0C0031466060284600F04EF8E060204670BDF7
:103F1C00984A0A0830B50F4D87B02978BFF35B8FEC
:103F2C0011F0010413D12846FCF7C0F878B101A8B0
:103F3C00FFF7D8FF214601AA0748FDF78DFD28465B
:103F4C00FCF7B9F8054A0649034800F023F8024883
:103F5C0007B030BD10120020141200208000002089
:103F6C000D1A0A08002313B5074C1A4619462046A9
:103F7C000093FDF7D3FD2046044A054902B0BDE885
:103F8C00104000F007B800BF28120020800000206D
:103F9C00C9000A080B460146184600F025B9FCF783
:103FAC0078B8FCF772B8FCF772B808B5FDF73CFAB4
:103FBC00014900F0FBB800BFB44A0A087FB50024E1
:103FCC001023CDE90234036815469E6912686B46CE
:103FDC0000948DF80440B0479DF8043003F00603BC
:103FEC00062B09BF01202046009B2B6004B070BD3E
:103FFC000098904214BF01200620704710B504466B
:10400C00024B036000F0CFF8204610BDF44A0A08BA
:10401C0010B50446FFF7F2FF20460821FFF7BFFF5B
:10402C00204610BD2DE9F041DDF818801F46DDE972
:10403C00083498450646154607D1079900F0B6F89E
:10404C0018B165710020BDE8F0813946304600F0AA
:10405C00ADF80028F6D00123C4F800802571A371B7
:10406C00F0E738B515461C4600F0A0F820B108233F
:10407C00E36006232560237138BD2DE9F041054628
:10408C000C4616461F4600F091F848B9032F07D886
:10409C002368324629462046BDE8F0415B69184743
:1040AC00BDE8F08110B50446024B0360FFF7A6FF94
:1040BC00204610BD544B0A0810B50446FFF7F2FF1A
:1040CC0020460C21FFF76BFF204610BD2DE9F04177
:1040DC00DDF81880064690450F4615461C460BD059
:1040EC00B0682A460368CDF818801E6A3946234604
:1040FC00B446BDE8F0416047194600F057F8002877
:10410C00EED00620BDE8F0812DE9F14F0D46DDE93A
:10411C000A4BDDE90CA6194681461746984600F075
:10412C0045F890B1002D3460377109DB2C44A24561
:10413C000CBF06240124B471002001B0BDE8F08F3F
:10414C000235F9D10123B371F6E7544506D159462E
:10415C00484600F02BF808B17771EDE7D9F8080064
:10416C003A460368CDE90CA6CDE90A4BDC69294631
:10417C004346A44601B0BDE8F04F60472DE9F0413D
:10418C0007460C4615461E46FFF76BFF48B9B86844
:10419C002A46036821469F693346BC46BDE8F04178
:1041AC006047BDE8F081704700207047814208B538
:1041BC000ED0406803782A2B0CD049680B782A2B38
:1041CC0008BF013100F089F8B0FA80F0400908BD51
:1041DC000120FCE70020FAE70A22002100F06AB96E
:1041EC000A22002100F066B910B5044604481346B3
:1041FC0020B10A4602202146AFF3008010BD00BF5B
:10420C00000000000A44914200F1FF3300D17047D6
:10421C0010B511F8014B914203F8014FF9D110BDC3
:10422C00884210B501EB020402D98442234607D818
:10423C00431EA14208D011F8012B03F8012FF8E717
:10424C00014602448A4200D110BD13F8014D02F818
:10425C00014DF7E703460244934200D1704703F83F
:10426C00011BF9E738B50D4B04461D68AB6B7BB9E8
:10427C001820FDF7B9F80A4A0A4BA863C0E90023D5
:10428C00094B012283600B2383810023C0E90423A3
:10429C000022AB6B1C615A6138BD00BF1C000020B2
:1042AC000E33CDAB34126DE6ECDE05000346C9B21D
:1042BC00184613F8012B12B18A42F9D17047002924
:1042CC0018BF0020704710B50446FFF7EFFF18B970
:1042DC00204600F030F8204410BD10F8012B11F8E6
:1042EC00013B012A28BF9A42F7D0D01A70470346E7
:1042FC0011F8012B03F8012B002AF9D170470000AB
:10430C00024B0146186800F003B800BF1C000020E7
:10431C0070B5044608460D4600F00DF8461C3146B3
:10432C002046FDF789F8044618B132462946FFF7B6
:10433C0069FF204670BD034613F8012B002AFBD100
:10434C00181A0138704710B56AB10139841810F881
:10435C00013B11F8012F934203D1A04201D0002B55
:10436C00F5D1981A10BD1046FCE738B503460C463B
:10437C0069B9BDE83840FFF799BF0546431C214693
:10438C001846FFF793FF0028F7D1284638BD0025C3
:10439C00F5E7F0B50C7864B103461A7818465E1C44
:1043AC000AB9104605E0944208D10D4615F8012FC4
:1043BC0002B9F0BD13F8017F9742F7D03346ECE712
:1043CC002DE9F0478C468646394E60461CF8014B69
:1043DC00A55D15F00805F8D12D2C33D14FF001084F
:1043EC009CF8004000F1020C002B5CD0102B0CD17F
:1043FC00302C0AD19CF8000000F0DF0058284DD179
:10440C0010239CF801400CF1020C002608F1004727
:10441C00013FB7FBF3F9304603FB197AA4F13005E1
:10442C00092D18D82C46A34224DD751C07D08145D4
:10443C001DD301D1A2451ADB012600FB03401CF859
:10444C00014BEBE72B2C08BF9CF80040A84608BF9B
:10445C0000F1020CC8E7A4F14105192D01D8373C35
:10446C00E1E7A4F16105192D04D8573CDBE74FF0C7
:10447C00FF36E4E7731C06D122233846CEF8003011
:10448C0042B9BDE8F087B8F1000F00D04042002AD5
:10449C00F7D00EB10CF1FF311160F2E73024002B94
:1044AC00B3D10823B1E7302CA4D00A23ADE700BF69
:1044BC008E4B0A0813460A46014602480068FFF76D
:1044CC007FBF00BF1C0000201D000A085D000A0809
:1044DC0085000A0889000A0800000000616E616C02
:1044EC006F6776616C7565002F6170692F00505590
:1044FC0054004745540046756C6C2044617461004F
:10450C00636F756E74002D2D2D2D2D2D2D2D2D2DB4
:10451C002D2D2D2D2D2D2D2D004855450048554563
:10452C003200726561636861626C650074727565F6
:10453C000032207365636F6E64730066616C736523
:10454C000048554520444154410048697420636F2C
:10455C006E646974696F6E616C007265616368206A
:10456C00636865636B003337362C00526561636892
:10457C0061626C652C20687565537472696E672C6A
:10458C00206875653220537472696E67007B226FE8
:10459C006E223A20747275652C20227363656E65E9
:1045AC00223A20226262492D41473772645856568E
:1045BC00797849222C20227472616E736974696F48
:1045CC006E74696D65223A2033307D004475736BCF
:1045DC00007B226F6E223A20747275652C20227338
:1045EC0063656E65223A2022647052617153447681
:1045FC0048366D306E7832222C20227472616E73C4
:10460C006974696F6E74696D65223A2033307D0070
:10461C004475736B2032007B226F6E223A207472C9
:10462C0075652C20227363656E65223A20224F3209
:10463C00507752586C444C736C79414964222C204D
:10464C00227472616E736974696F6E74696D652220
:10465C003A2033307D00444159007B226F6E223A60
:10466C0020747275652C20227363656E65223A2066
:10467C002276596D6175594352677A55467A332DB6
:10468C00222C20227472616E736974696F6E746966
:10469C006D65223A2033307D00446179005468699D
:1046AC0073206973206D61696E206C6F6F7000618F
:1046BC006B486A7958617249537A646D4E36653429
:1046CC00726A4C6E357078637049566769417A4FDF
:1046DC0033475A6C2D316F002F6C69676874732FD8
:1046EC0035002F67726F7570732F332F6163746988
:1046FC006F6E007B227374617465223A207B226892
:10470C007565223A20223130303030227D7D006EAA
:10471C00756C6C0000000000000000000000000040
:10472C0000000000A5000A08CB000A0800000000E9
:10473C000000000049010A087D010A08A12B0A08A3
:10474C00CD000A08000000000000000001010A086A
:10475C0015010A08416363657074002A2F2A002032
:10476C00485454502F312E300D0A00636C6F736512
:10477C0000436F6E6E656374696F6E00484F5354DF
:10478C0000436F6E74656E742D4C656E67746800B3
:10479C00504F5354000D0A0D0A0000000000000099
:1047AC0000000000A10E0A08BD0E0A08000000005F
:1047BC0000000000D10E0A08F50E0A0800000000E7
:1047CC000000000093140A0899140A08E9140A0856
:1047DC00A7140A0895140A08000000000000000045
:1047EC000D1A0A08571A0A082F1A0A080F1A0A086B
:1047FC00371A0A083F1A0A08471A0A084F1A0A08F1
:10480C000000000000000000891A0A08C9000A080C
:10481C00B1010A082564002575007525303478002F
:10482C00626175640053657269616C005553425343
:10483C00657269616C31004A534F4E5374726561F5
:10484C006D4C6F6748616E646C65720061707000CE
:10485C00253031307520005D20002C200028293AAD
:10486C002000205B00636F6465203D2000256900FB
:10487C0064657461696C73203D20006D0063006693
:10488C00006C6E00666E00636F6465006465746135
:10489C00696C000000000000000000002B1F0A08DB
:1048AC00511F0A08111F0A086F1B0A08000000009C
:1048BC0000000000CD230A08E5230A08A12B0A08F2
:1048CC00CD000A080000000000000000F9230A08CF
:1048DC000D240A08492D0A08191F0A0800000000B7
:1048EC0000000000291F0A085F1F0A08DD2A0A08B9
:1048FC001B1F0A080000000000000000271F0A0808
:10490C006D1F0A08F5220A08891F0A08000000001A
:10491C0000000000BD2E0A08C72E0A08D12E0A0876
:10492C00DB2E0A08E52E0A08F12E0A08FD2E0A08CD
:10493C00052F0A080D2F0A08192F0A08212F0A081B
:10494C002B2F0A08352F0A08776972696E67005495
:10495C004350436C69656E7420736F636B65743D73
:10496C0025780000000000000000000045340A0813
:10497C006D340A088F380A087B340A0849340A084F
:10498C00000000000000000000000000000000001B
:10499C0081340A08B5340A0801340A081B340A08A1
:1049AC0091360A0817350A08E9340A0843340A080C
:1049BC00B1350A0895380A084B350A0805370A0834
:1049CC00B3370A086B370A082B340A0879370A08F8
:1049DC00C9340A0825592D256D2D25645425483ACE
:1049EC00254D3A2553257A0061736374696D650012
:1049FC00000000000000000015390A087D390A0883
:104A0C0059390A08B12F0A0829390A0845390A0800
:104A1C0037390A0853390A0817390A081B390A08A2
:104A2C000000000000000000213A0A08873A0A083A
:104A3C005F3A0A08B12F0A08513A0A08233A0A08C1
:104A4C00333A0A08813A0A08433A0A081D3A0A0816
:104A5C000000000000000000673C0A085D3C0A08EA
:104A6C00533C0A08C53B0A08473C0A083B3C0A0869
:104A7C00FD2E0A08052F0A082F3C0A08273C0A08B5
:104A8C001D3C0A08133C0A08CF3B0A08005374313A
:104A9C00395F53705F6D616B655F736861726564DC
:104AAC005F74616700000000F44A0A08994A0A081A
:104ABC00544B0A08C84A0A08784B0A084E31305F32
:104ACC005F637878616269763131375F5F636C61FF
:104ADC0073735F747970655F696E666F4500000073
:104AEC0000000000BC4A0A0809400A081D400A08D8
:104AFC00B5410A08B5410A0887400A08C93F0A08A7
:104B0C006F400A0831400A08FD3F0A08544B0A0856
:104B1C00244B0A08BC4A0A084E31305F5F63787830
:104B2C00616269763132305F5F73695F636C6173A8
:104B3C00735F747970655F696E666F450000000085
:104B4C0000000000184B0A08B1400A08C5400A08CA
:104B5C00B5410A08B5410A0887400A08C93F0A0846
:104B6C0089410A0815410A08D9400A08F44A0A087A
:104B7C00804B0A08537439747970655F696E666F7F
:104B8C000000202020202020202020282828282831
:104B9C002020202020202020202020202020202009
:104BAC002020881010101010101010101010101061
:104BBC001010040404040404040404041010101061
:104BCC00101010414141414141010101010101011C
:104BDC00010101010101010101010101011010108C
:104BEC0010101042424242424202020202020202EF
:104BFC00020202020202020202020202021010105F
:104C0C001020000000000000000000000000000068
:104C1C000000000000000000000000000000000088
:104C2C000000000000000000000000000000000078
:104C3C000000000000000000000000000000000068
:104C4C000000000000000000000000000000000058
:104C5C000000000000000000000000000000000048
:104C6C000000000000000000000000000000000038
:104C7C000000000000000000000000000000000028
:104C8C000000000079090A08912B0A089D2F0A08D8
:104C9C00E1300A08C5330A0801390A08713C0A08D0
:044CAC00713F0A0842
:044CB0000000000000
:104CB40060470A0867470A08000000000000000077
:104CC400F0480A0808490A08F4490A0820000020A4
:104CD40000000000000000000000000000000000D0
:104CE40000000000000000000000000000000000C0
:104CF40000000000000000000000000000000000B0
:104D0400000000000000000000000000000000009F
:104D1400000000000000000000000000000000008F
:104D2400000000000000000000000000000000007F
:104D3400FFFFFFFF00000102030405060708090A3C
:104D44000B0C0D0E0F101112131415161718191A37
:084D54001B1C1D1E1F2028007E
:044D5C00785634123F
:04000005080A001CC9
:00000001FF
